:100000000C944E030C9486030C9486030C94860384
:100010000C9486030C9486030C9486030C9486033C
:100020000C9486030C9486030C94D1280C94A32979
:100030000C94B0230C9486030C9486030C948603D2
:100040000C9486030C9486030C9486030C9486030C
:100050000C9486030C9438240C9486030C94860329
:100060000C9486030C9486030C9486030C948603EC
:100070000C9486030C9486030C9486030C948603DC
:100080000C9486030C9486030C9486030C948603CC
:100090000C9486030C9486030C9486030C948603BC
:1000A0000C9486030C9486030C9486035A065A0615
:1000B00086068606EE060C07240824081707B007F4
:1000C000C107C107102A372A2F2B372A2F2B832A43
:1000D000A62A2F2BFD2A0C2B29003A003B003C00BE
:1000E0003D003E003F00400041004200430044000C
:1000F0004500460047004C0035001E001F00200050
:1001000021002200230024002500260027002D00C6
:100110002E002A002A004A002B00000014001A00BA
:100120000800150017001C0018000C001200130036
:100130002F00300031004B00390000000400160091
:10014000070009000A000B000D000E000F0033002D
:100150003400280000004E00E100E1001D001B00FB
:1001600006001900050011001000360037003800A5
:100170000000E50052004D00E000E3000000E20056
:100180002C000000015100002C0000000258E60085
:10019000E400500051004F00C35CAA00A900A80071
:1001A000000000000000000000000000000000004F
:1001B0000000010001000100EF00EE00ED00F00082
:1001C000FB00FA00FB00FC00000000000000000043
:1001D000000000002A0001000100000000000000F3
:1001E0004D000000000000004B0000000000000077
:1001F00000000000010001000100000000000000FC
:100200004E00000000005000510052004F0000005E
:1002100000000100000001000100010000000000DA
:10022000000000004A000000000000000000000084
:1002300000000100010001000100010000000100B8
:1002400001000000010000000100000001000100A9
:100250000100010001000100C35CC45CC65CC85C15
:10026000CA5CCC5CCE5CCF5CD05CD15CD25CD35C35
:10027000D55CD65C000000000000C55CC75CC95CB2
:10028000CB5CCD5C0000000000000000000000001E
:100290000000000000000000C05C0000C15CC25C07
:1002A000BC5CBF5C0000000000000000000000001B
:1002B000000000000000000000000000000000003E
:1002C000BD5CBE5CBD5C00000000000000000000E2
:1002D000000000000000000000000000000000001E
:1002E000000000000000000000000000000000000E
:1002F00000000000000000000000000000000000FE
:1003000000000000000000000000000001000000EC
:10031000000000000000000000047F3F1F64321452
:10032000643214783C1E1E140A052223252628292F
:100330002A2C2D2F3032333536383A3B3D3E404261
:10034000434547494A4C4E5051535557595A5C5EA4
:100350006062646668696B6D6F71737577797B7DB8
:100360007F81838587898A8C8E90929496989A9CB7
:100370009E9FA1A3A5A7A8AAACAEAFB1B3B4B6B8CF
:10038000B9BBBCBEBFC1C2C3C5C6C7C9CACBCCCD31
:10039000CED0D1D2D2D3D4D5D6D7D7D8D9D9DADA0C
:1003A000DBDBDBDCDCDCDCDCDDDDDDDDDCDCDCDC8C
:1003B000DCDBDBDBDADAD9D9D8D7D7D6D5D4D3D2C0
:1003C000D2D1D0CECDCCCBCAC9C7C6C5C3C2C1BF9E
:1003D000BEBCBBB9B8B6B4B3B1AFAEACAAA8A7A502
:1003E000A3A19F9E9C9A98969492908E8C8A8987BE
:1003F0008583817F7D7B79777573716F6D6B69689C
:10040000666462605E5C5A5957555351504E4C4A6F
:100410004947454342403E3D3B3A3836353332301A
:100420002F2D2C2A292826252322FFAA7F5540007C
:1004300001010101010101010102020202020202A5
:100440000202030303030303030304040404040478
:10045000040505050505060606060607070707073E
:1004600008080808090909090A0A0A0B0B0B0C0CF1
:100470000C0D0D0D0E0E0E0F0F0F1010111111128D
:100480001213131414151516161717181819191A0C
:100490001A1B1B1C1D1D1E1E1F202021222223246F
:1004A00024252626272829292A2B2C2D2D2E2F30AE
:1004B000313232333435363738393A3B3C3D3E3FC2
:1004C000404142434445464748494A4C4D4E4F50AF
:1004D000515354555658595A5B5D5E5F616264656D
:1004E0006668696B6C6D6F7072737577787A7B7DF7
:1004F0007E8082838587888A8C8E8F91939596984B
:100500009A9C9EA0A2A3A5A7A9ABADAFB1B3B5B766
:10051000BABCBEC0C2C4C6C9CBCDCFD1D4D6D8DB3D
:10052000DDDFE2E4E7E9EBEEF0F3F5F8FAFDFF0CCE
:10053000034B0042004400370035000000160371F1
:10054000006D006B006200750069006C006400655E
:1005500000720000000403090409023B00020100CC
:10056000A0FA0904000001030101000921110100A2
:100570000122400007058103080001090401000170
:100580000300000009211101000122B600070582C5
:10059000032000011201000200000008424B6160CC
:1005A00002000102000105010902A1018502090101
:1005B000A1000509190129081500250195087501F3
:1005C00081020501093009311581257F95027508E1
:1005D000810609381581257F950175088106050C6E
:1005E0000A38021581257F950175088106C0C0056E
:1005F000010980A101850319012AB700150126B759
:1006000000950175108100C0050C0901A101850448
:1006100019012AA002150126A0029501751081007A
:10062000C005010906A1018506050719E029E7159E
:100630000025019508750181020507190029EF15AC
:1006400000250195F075018102050819012905951C
:100650000575019102950175039101C00501090617
:10066000A101050719E029E7150025019508750185
:1006700081029501750881010507190029FF150000
:1006800026FF0095067508810005081901290595C2
:100690000575019102950175039101C011241FBEDA
:1006A000CFEFDAE0DEBFCDBF04B603FE18C0809105
:1006B000530390915403A0915503B0915603873092
:1006C000904BA740B04B59F410925303109254032F
:1006D0001092550310925603E0E0F8E3099511E0FB
:1006E000A0E0B1E0E0EBF8E502C005900D92AA3C75
:1006F000B107D9F723E0AAECB1E001C01D92A33500
:10070000B207E1F70E9438140C94562C0C940000A8
:1007100081E0089581E008950C948A0308950C9473
:100720008E031F93CF93DF9300D000D01F92CDB7DD
:10073000DEB749835A836B833091CD0189819A81D9
:10074000311114C0662359F0222349F00E94610A36
:10075000182F682F89819A810E940A0A03C00E947B
:10076000350A182F69817A81812F04C00E94610A9D
:1007700069817A810F900F900F900F900F90DF9109
:10078000CF911F910C94A111FC01262F4081518122
:100790006281738184810C94910381E00895CF93E9
:1007A000DF93EC0160E00E94C403BE01DF91CF91B2
:1007B0000C948F030C94E9120C94E51208950E9496
:1007C000B4080E94DE032FEF84E39CE021508040B8
:1007D0009040E1F700C000000C945E240F931F933B
:1007E000CF93DF938C0161E00E94C403EC01B80158
:1007F0000E948C03882309F44BC0B801CE010E94EB
:10080000E91E882309F444C0B801CE010E94FB21EF
:100810008823F1F1B801CE010E940F208823C1F195
:10082000B801CE010E945721882391F1B801CE0171
:100830000E942D1D882361F1F8018281882309F12E
:10084000CB358DE5D807C1F050F4C115FCE5DF07C5
:1008500081F0CF3DDC45A9F40E94980F19C0CC353A
:10086000EDE5DE0761F0CD35DD4559F40E94DB0E84
:1008700008C00E94DF030CC00E94E40E02C00E9468
:10088000E70EC801DF91CF911F910F910C9488035F
:1008900080E0DF91CF911F910F9108950E949223E4
:1008A00080E00E941E1F0E947D040C94AA1B0E94DF
:1008B0000D1E0E9480040E94761C0C9498230895BB
:1008C0000C945F0481E00895CF93C82F0E946204C6
:1008D000882329F0C1FD02C02A9A01C02A98CF912D
:1008E0000895229A2A9A0895CF93C82F0E946004EF
:1008F0008C2F0E946404CF91089580E00C947404BE
:100900000E9457220C9474040E9457229091CC01AB
:10091000891721F08093CC010C9474040895CF932F
:10092000DF93CDB7DEB72B970FB6F894DEBF0FBEBF
:10093000CDBF4F83588769877A878B8761110E9463
:10094000270E9E012F5F3F4F86E0F90111928A9595
:10095000E9F785E0FE013796D90101900D928A955D
:10096000E1F789819A814C815D81452B31F09F3F70
:1009700031F491E08F3F19F403C091E001C090E0A1
:1009800090FF09C049815A816B817C818D819E8154
:100990000E94480D05C0C9010E94CD038111F2CF0C
:1009A0002B960FB6F894DEBF0FBECDBFDF91CF916F
:1009B0000895FC01808191810E94A30A0895CF933C
:1009C000882309F4A4C0C82F8238C1F40E9457229A
:1009D00081FD9DC069E380910201909103010E9415
:1009E0004D230E94490E2FEF81EE94E0215080406C
:1009F0009040E1F700C0000069E319C0833801F5B9
:100A00000E94572280FD83C063E58091020190918E
:100A100003010E944D230E94490E2FEF81EE94E0C6
:100A2000215080409040E1F700C0000063E58091D4
:100A30000201909103010E945823CF910C94490E1A
:100A40008438C1F40E94572282FD61C067E480911E
:100A50000201909103010E944D230E94490E2FEF45
:100A600081EE94E0215080409040E1F700C000000A
:100A700067E4DDCF8CEF8C0F813AD0F46C2F80913E
:100A80000201909103010E94CD22882349F06C2F2E
:100A900080910201909103010E9458230E94490E07
:100AA0006C2F80910201909103010E944D23C5CFCC
:100AB00080E28C0F883048F4C77081E001C0880F55
:100AC000CA95EAF70E940A0EB8CFEBE5EC0FE330C7
:100AD00040F4F0E0E65AFE4F808190E0CF910C9414
:100AE0008B22E8E5EC0FE73150F4F0E0EE0FFF1F4A
:100AF000E45DFE4F80819181CF910C94A122CD3E87
:100B000030F08C2F0E94BD14CF910C948F15CF9193
:100B10000895882309F464C0823879F40E9457222A
:100B200081FF5EC069E380910201909103010E9400
:100B30004D230E94490E69E310C08338B1F40E942E
:100B4000572280FF4DC063E580910201909103011F
:100B50000E944D230E94490E63E58091020190910D
:100B600003010E9458230C94490E843879F40E94A2
:100B7000572282FF35C067E4809102019091030102
:100B80000E944D230E94490E67E4E7CF9CEF980F27
:100B9000913A10F4682FE1CF90E2980F983050F41A
:100BA000877091E001C0990F8A95EAF7892F0E941A
:100BB000100ED9CF9BE5980F933020F480E090E0A1
:100BC0000C948B2298E5980F973120F480E090E008
:100BD0000C94A1228D3E20F00E9418150C948F15C4
:100BE00008951F93CF93DF93182FEB010E94DF042A
:100BF000209741F08FE99FE00197F1F700C00000D6
:100C00002197F6CF812FDF91CF911F910C94890509
:100C1000893319F060E070E002C060E570E00C9488
:100C2000F105882321F00E940A0E0C94490E0895C4
:100C3000882321F00E94100E0C94490E0895CF9243
:100C4000DF92EF92FF920F931F93CF93DF937C017C
:100C5000D62FC72FFC011281058102950F700E94CB
:100C6000000E8823B9F01123A9F08C2F807F8034E7
:100C700021F080E28D0F883068F08091F30282FDD0
:100C800009C082E00E94A90E0E94000E91E0D82EB9
:100C9000D92601C0D12CCC2EC2948FE0C8228C2D35
:100CA00090E08C30910508F0CFC1FC01EA5AFF4F6B
:100CB0000C94BD2B8C2F807FCF70882311F0C295B0
:100CC000C07F112399F0CC2309F4AAC180E28D0FD3
:100CD000883010F0D11104C08C2F0E940A0E03C07E
:100CE0008C2F0E941A0E0E94490E9AC18D2F0E94CD
:100CF0008905CC2309F4A8C180E28D0F883038F132
:100D0000DD2329F18C2F0E94200E24C08C2F807FA0
:100D1000CF70803211F0C295C07FDD2319F0D13041
:100D2000A1F13DC08091F30282FF17C0112349F069
:100D3000CC2329F08C2F0E940A0E0E94490E80E0DD
:100D400070C180E00E948905CC2309F47DC18C2FFD
:100D50000E94100E0E94490E77C1112371F00023EA
:100D600041F0013031F40E942A0E8C2B0E94320E89
:100D70006BC10E942A0E8C2B1DC0002319F001307C
:100D800009F462C10E943F0E25C0112321F00630F4
:100D900008F05AC10EC0053008F056C11BC011231F
:100DA00061F0002331F0F701858180FF39C18F7038
:100DB00085838C2F0E94110647C1002359F0D93337
:100DC00009F03FC1FFEF07EE13E0F1500040104083
:100DD000E1F735C18C2F0E94180636C18C2F8695FD
:100DE0008695837019F0813061F02EC1112321F0B6
:100DF0008D2F9C2F937002C080E090E00E948B2288
:100E00002BC1112321F08D2F9C2F937002C080E005
:100E100090E00E94A12220C18D2F112319F00E9481
:100E2000BD1402C00E9418150E948F1515C18C2F89
:100E3000837009F047C011110BC12D2F2295269503
:100E40002770220F220F6D2F6F70862F90E0A0E089
:100E5000B0E0022E04C0880F991FAA1FBB1F0A947E
:100E6000D2F7D4FF10C04FE050E060E070E004C063
:100E7000440F551F661F771F2A95D2F7409550954E
:100E80006095709503C040E050E0BA01C695C695E4
:100E9000C3708A019B01082B192B2A2B3B2BC901FC
:100EA000B801C23049F058F4C13019F00E9420094D
:100EB000CFC00E940E09CCC00E943209C9C00E9456
:100EC0000C09C6C0112319F08C2F817001C08695C2
:100ED000882309F4BDC02D2F229526952770220F57
:100EE000220F6D2F6F70862F90E0A0E0B0E0022EF1
:100EF00004C0880F991FAA1FBB1F0A94D2F7D4FF02
:100F000010C04FE050E060E070E004C0440F551F97
:100F1000661F771F2A95D2F740955095609570957A
:100F200003C040E050E0BA01C695C695C3708A017F
:100F30009B01082B192B2A2B3B2BC901B801C2306E
:100F400049F058F4C13019F00E94E50981C00E94AF
:100F5000D3097EC00E94F7097BC00E94460978C071
:100F6000CF70112339F08C2F0E946C098D2F0E94B5
:100F700011066EC08D2F0E9418068C2F0E948D09BD
:100F800067C0D23F21F128F4D03F41F0D13FC1F0FA
:100F900043C0D33F19F1D43F79F03EC0112341F053
:100FA000053008F051C08C2F8F710E94B2094CC0DF
:100FB000063008F049C0F7CF8091F30282FF18C0D5
:100FC000112339F08C2F8F710E946C093DC01123C1
:100FD000C9F38C2F8F710E948D0936C0112329F01F
:100FE0008C2F8F710E9457092FC00E9452092CC06C
:100FF000112349F0CF718C2F0E946C0963E08C2F74
:101000000E948E0E21C081E00E94A90E0230E0F005
:1010100082E00E94A90E18C0112331F0002391F242
:101020008D2F0E94DF0410C0002399F2D93349F4B8
:101030001FEF27EE33E0115020403040E1F700C0B1
:1010400000008D2F0E94890588EF8C0D843020F4DC
:101050000E9457220E947404DD20C9F00E94FC0DFA
:1010600080FD15C0F70112820E94F60D0E946C09E6
:10107000C7010E9468080E94F60DDF91CF911F9171
:101080000F91FF90EF90DF90CF900C948D09DF913E
:10109000CF911F910F91FF90EF90DF90CF90089527
:1010A0000F931F93CF93DF93EC01688179818A813D
:1010B0000E94AE0A8C010E94090A0E94FA08B80137
:1010C000CE010E941F06DF91CF911F910F910895CD
:1010D000CF93DF93EC01988189812B813C81232B75
:1010E00031F08F3F31F481E09F3F19F403C081E07C
:1010F00001C080E080FD1DC0CE010E94EE03811181
:1011000010C00E94000E8823A1F08A81882389F0F4
:101110008091F30282FD0DC082E0DF91CF910C94AB
:10112000A90ECE010E945008CE01DF91CF910C9400
:10113000CF03DF91CF91089580E090E00E948B2251
:1011400080E090E00E94A1220E94270E0E94490E9A
:101150000E94C0160C948F1580910201909103019A
:101160000E9463230C949C080E94170E0C94AC08F8
:1011700092959F70963079F010F4925001C09A5079
:10118000923068F4803F69F018F4883E40F409C05A
:10119000843F29F406C0883E20F0813F11F080E0B2
:1011A000089581E00895FC01808191810E94A30A45
:1011B0000E94B8080895CF93DF9300D000D01F920B
:1011C000CDB7DEB70F900F900F900F900F90DF917B
:1011D000CF910895CF93DF9300D000D000D0CDB74A
:1011E000DEB726960FB6F894DEBF0FBECDBFDF91F7
:1011F000CF910895089508950C94FB080C94FC0871
:101200000E94FE0860930E0270930F0280931002FA
:10121000909311020C949C080C9400090F931F9357
:1012200000910E0210910F022091100230911102D4
:10123000602B712B822B932B1F910F910C94000923
:101240000F931F9300910E0210910F022091100234
:101250003091110260237123822393231F910F91F8
:101260000C9400090F931F9300910E0210910F022E
:101270002091100230911102602771278227932755
:101280001F910F910C9400090C94FB080E944409D3
:1012900060930A0270930B0280930C0290930D02EC
:1012A0000C949C0860E070E0CB010C9446090F930D
:1012B0001F9341E050E060E070E08A019B0104C0B0
:1012C000000F111F221F331F8A95D2F7C901B801E1
:1012D0001F910F910C9446090F931F9341E050E02A
:1012E00060E070E004C0440F551F661F771F8A95A9
:1012F000D2F780910A0290910B02A0910C02B0915A
:101300000D028A019B01082B192B2A2B3B2BC901AB
:10131000B8011F910F910C9446090F931F9341E060
:1013200050E060E070E004C0440F551F661F771F57
:101330008A95D2F7409550956095709580910A02F4
:1013400090910B02A0910C02B0910D028A019B01B9
:10135000082319232A233B23C901B8011F910F91A8
:101360000C9446090F931F9341E050E060E070E059
:1013700004C0440F551F661F771F8A95D2F78091CE
:101380000A0290910B02A0910C02B0910D028A0109
:101390009B01082719272A273B27C901B8011F915C
:1013A0000F910C9446090F931F9300910A0210911C
:1013B0000B0220910C0230910D02602B712B822BBD
:1013C000932B1F910F910C9446090F931F9300913B
:1013D0000A0210910B0220910C0230910D02602341
:1013E0007123822393231F910F910C9446090F932D
:1013F0001F9300910A0210910B0220910C02309170
:101400000D0260277127822793271F910F910C945B
:101410004609089520E1929F800D1124E82FE6955A
:10142000E695E695877051E001C0550F8A95EAF779
:1014300085E0E89FF0011124E253FE4F20E030E008
:1014400070E04081CB01022E02C0969587950A94E8
:10145000E2F78170819584278523842781932F5F0C
:101460003F4F2530310569F7089520E1929F800DA7
:101470001124682F669566956695982F977085E07C
:10148000689FB001112440E050E080E0FB01E40FD0
:10149000F51FE253FE4F208130E0092E02C0369541
:1014A00027950A94E2F721703327042E01C0220FFA
:1014B0000A94EAF7822B4F5F5F4F4530510531F7B1
:1014C0000895BF92CF92DF92EF92FF920F931F93F6
:1014D000CF93DF938C01C0900A02D0900B02E09072
:1014E0000C02F0900D0280910E0290910F02A091DB
:1014F0001002B0911102C82AD92AEA2AFB2ACFE1A8
:10150000D0E0D701C6010C2E04C0B695A7959795DB
:1015100087950A94D2F780FD04C0219790F7B12CEB
:1015200007C0BC2EB8018C2F0E94B6110197A9F3F9
:101530008B2DDF91CF911F910F91FF90EF90DF9056
:10154000CF90BF900895CF93DF93EC010E94610A82
:10155000BE010E94B611DF91CF9108951F93CF93E2
:10156000DF93EB019091CD01992321F0CB010E94F3
:10157000A30A13C0882349F0CB010E94610A182FE7
:10158000682FCE010E940A0A04C0CB010E94350ACE
:10159000182FBE01812F0E94B611DF91CF911F91AC
:1015A00008951F93CF93DF93C091120216E08091AC
:1015B0001302C81799F0D0E01C9FF0011D9FF00D99
:1015C0001124EC5EFD4F40815181628173818481E1
:1015D00095810E94EA082196C770E9CFDF91CF91EB
:1015E0001F91089540914402509145026091460236
:1015F0007091470280914802909149020C94EA0848
:10160000EF92FF920F931F93CF93DF938091490244
:1016100082958F7009F065C080914602882309F495
:1016200060C080911202F090130210914402009168
:101630004502609147027091480291E01F3F09F016
:1016400090E0C0910001D0910101292F96E0E92E90
:101650008F1509F446C06115710521F00F3F21F087
:1016600030E003C031E001C0322F90E030FD36C0E1
:10167000E89EF001E99EF00D1124DF01AC5EBD4F44
:1016800011963C911197301329C03C91311326C01B
:1016900012963C911297311121C013964D915C9195
:1016A0001497461B570B4C175D07C0F480914902F5
:1016B0008F70806180934902E75EFD4F80818F705B
:1016C0008061808384E492E00E946808DF91CF917A
:1016D0001F910F91FF90EF900C94D10A01968770A3
:1016E000B7CFDF91CF911F910F91FF90EF900895A9
:1016F0009F92AF92BF92CF92DF92EF92FF920F93A1
:101700001F93CF93DF93CDB7DEB761970FB6F894F1
:10171000DEBF0FBECDBF8C0185E0F801DE011D9656
:1017200001900D928A95E1F7D8011296EC90909174
:101730004402E09145022091470230914802211570
:10174000310531F0EF3F31F481E09F3F19F403C0E0
:1017500081E001C080E0B82FB1709B2E80FD47C1B1
:10176000D8014C9111965C9111971396AD90BC9055
:10177000149784E4C82E82E0D82EF0904602B5017A
:10178000621B730B2091000130910101FF2009F4CD
:10179000D9C0809149026217730708F095C0282FBD
:1017A000207F09F052C05E1313C0491311C0FE2CF4
:1017B000E1100EC08F708061809349020E94F20A8E
:1017C000C6010E94680880914902F80185834DC1D5
:1017D000AB2831F05F3F31F481E04F3F19F403C093
:1017E00081E001C080E080FD03C081E08E2502C061
:1017F00080E090E0F82FF170FF2E80FF1CC08091F8
:1018000012022091130236E0821709F40BC190E016
:10181000389FF001399FF00D1124EC5EFD4F61817E
:10182000561306C06081461303C06281E61203C0EE
:1018300001968770E9CFFE2CEE2009F416C1809145
:10184000490281608093490254C05E1306C0491367
:1018500004C0E11002C0F80199C0C8010E94D30879
:10186000882361F1EE2051F120914902822F829567
:101870008F7090E0029774F080914402909145023D
:1018800098878F831986BB86AA862C87CE010796F8
:101890000E94680886E0F801A4E4B2E001900D928D
:1018A0008A95E1F70E94000B0E94F20A0AC05E17B7
:1018B00011F1C8010E94D30881112CC0C8010E94F7
:1018C0006808FF24F394D1C0282F207F81F77A2D58
:1018D000B98AA88A6E2D89890E94DB0884E492E087
:1018E0000E94680886E0D6011D928A95E9F70E9459
:1018F000F20AF12CBAC04913DCCFE110DACFF801BB
:101900008583C8010E94680886E0D6011D928A95E9
:10191000E9F7ABC0EE2091F220914902822F829527
:101920008F7090E002970CF4B5CF809144029091B3
:1019300045029A8389831B82BD82AC822E83CE01AD
:101940000196A6CF6217730708F044C0FE2CEE2064
:1019500009F4B4CF5E1330C049132EC02091490260
:1019600020FD21C0822F82958F70482F50E04115B5
:101970005105C9F0F80125834F30510541F08F5FC3
:10198000982F9295907F822F8F70892B8583C80125
:101990000E94680886E0F801A4E4B2E001900D928C
:1019A0008A95E1F73CC086E0F801A4E4B2E001903A
:1019B0000D928A95E1F759C0C8010E94D3088111A0
:1019C00069CF80914902816080934902C8010E94D9
:1019D00068084BC07A2DB98AA88A6E2D89890E9421
:1019E000DB0886E0D6011D928A95E9F718C0EE2043
:1019F00009F464CFC8010E94D308F82E882309F4A3
:101A00005DCF86E0F801A4E4B2E001900D928A95E2
:101A1000E1F784E492E00E94D9040E94000B0E9446
:101A2000F20A23C04D875E878D859E850E94A30A9A
:101A3000292F22952F70223028F49F7039F08111C0
:101A400005C00BC0243028F49F7049F4805E8830B4
:101A500020F0C8010E9468089F2CF92C06C0D8010C
:101A600015969C91907F91F7F8CF8F2D61960FB6C8
:101A7000F894DEBF0FBECDBFDF91CF911F910F91C4
:101A8000FF90EF90DF90CF90BF90AF909F90089520
:101A90001F93CF93DF93CDB7DEB72C970FB6F89493
:101AA000DEBF0FBECDBF4F83588769877A878B878C
:101AB0009C87CE0107960E94780B8823D1F09F81E6
:101AC00088852A853B85232B31F08F3F31F481E0D7
:101AD0009F3F19F403C081E001C080E080FD47C052
:101AE0004F81588569857A858B859C850E94EA0897
:101AF0003EC086E0FE013796DE01119601900D9200
:101B00008A95E1F7FF81E8856A857B856115710516
:101B100031F0EF3F31F481E0FF3F19F403C081E081
:101B200001C080E080FD23C02091130230E0C90194
:101B30000196877099274091120250E0841795070B
:101B4000F1F1F983EA837D836C8396E0929FD00163
:101B5000939FB00D1124AC5EBD4FFE0131960190F4
:101B60000D929A95E1F7809313020E94D10A16E034
:101B70008091120290911302891771F1189FC00190
:101B800011248C5E9D4F0E94780B882329F1E091EF
:101B900012021E9FF0011124EC5EFD4F4081518125
:101BA00062817381848195810E94EA08809112028A
:101BB00090E001968770992780931202D9CF0E94F6
:101BC000B4081092130210921202E4E4F2E086E0EC
:101BD000DF011D928A95E9F72C960FB6F894DEBFC7
:101BE0000FBECDBFDF91CF911F91089580916A0202
:101BF000859585958595089580916A0287700895E9
:101C000090916A02977081E009F480E008958091D4
:101C10008D02089590918D02892B80938D020895F5
:101C2000809590918D02892380938D020895109262
:101C30008D02089590918C02892B80938C020895D7
:101C4000809590918C02892380938C020895109244
:101C50008C02089580916B02089508950C942D0EC6
:101C60000C942E0E9091F30292FD08C090916B029D
:101C7000981721F080936B020C94300E0895809198
:101C80006B02882329F010926B0280E00C94300ED6
:101C90000895CF93DF93E0910201F09103018091C9
:101CA0008D028083E0910201F09103019081809187
:101CB0008C02892B808380916B02882381F0E091D4
:101CC0000201F09103019081892B808380910201B0
:101CD000909103010E94B72281110E943F0EC09192
:101CE0000201D091030140E250E06AE472E0CE01CB
:101CF0000E94012C892B69F080E2FE01AAE4B2E087
:101D000001900D928A95E1F7CE01DF91CF910C946D
:101D10006322DF91CF9108950C942D0E9091F302E0
:101D200092FD10C098E0899F90011124262B2093EA
:101D30006A020E946C0980916A0285958595859555
:101D40000C948C0E0C946C0910926A0280E00C9436
:101D50008C0E20916A028095822380936A02982FCC
:101D6000977099F430E0482F082E000C550B24177B
:101D7000350759F09091F30292FD07C0859585953E
:101D800085950E948D090C94A40E08959091F302FC
:101D900092FB222720F9281769F080FB92F9909393
:101DA000F3028091F2029091F3020E94140F82E0FC
:101DB0000C94A90E08958091F30282FB882780F984
:101DC00091E089270C94C60E81E00C94C60E80E049
:101DD0000C94C60E6FEF7FEF80E090E00C94402CE7
:101DE00080E090E00E941C2C21E0893E9E4F09F08B
:101DF00020E0822F089582E090E00C940E2C83E086
:101E000090E00C940E2CCF9384E090E00E940E2C76
:101E1000C82F82E290E00E940E2C2C2F30E0A90106
:101E2000582BCA01CF910895CF93C92F682F84E012
:101E300090E00E94222C6C2F82E290E0CF910C94D3
:101E4000222CAB01BC018FE090E00C94342CAB0150
:101E5000BC0183E190E00C94342C60E070E0CB0195
:101E60000C94270F60E070E0CB010E94210F0C94CE
:101E70002D0F69EE7EEF80E090E00E94402C60E044
:101E800082E090E00E94222C60E083E090E00E94DB
:101E9000222C10920E0210920F0210921002109239
:101EA000110260E084E090E00E94222C60E082E277
:101EB00090E00E94222C60E085E090E00E94222CBD
:101EC00060E086E090E00E94222C6FEF87E090E0D7
:101ED0000E94222C40E050E0BA0188E090E00E948D
:101EE000342C60E08DE090E00E94222C40E050E035
:101EF000BA0188E190E00E94342C60E087E190E034
:101F00000E94222C40E050E0BA018CE190E00E9457
:101F1000342C60E070E080E290E00E94402C40E0D1
:101F200050E0BA0188E190E00E94342C0C94320F0A
:101F30000C94390F682F8EE090E00C94222C0E94B4
:101F40001D2460939E0270939F028093A002909341
:101F5000A10260939A0270939B0280939C029093DB
:101F60009D02089585B7806885BF85B7806885BF65
:101F7000089581E008950C94B90F08950C94BD0F55
:101F80000C94BD0F0C94C00F0C94BD0F0C94C40F97
:101F90000C94BD0F0E94B20F82E992E10E944D2283
:101FA0000E94C80F0C94C60F0E94BE0F0C94BD0F68
:101FB0000E94AC120E9471040C94D41F0E94082449
:101FC0000E9491130E94D80F0E940D1E0E943B1C7C
:101FD0000C94C20F5F926F927F928F929F92AF92FA
:101FE000BF92CF92DF92EF92FF920F931F93CF9306
:101FF000DF93CDB7DEB72A970FB6F894DEBF0FBEDA
:10200000CDBF0E94A613C82E81110E949F0F3EE8EB
:10201000832E32E0932E00E010E0502E802F0E949D
:10202000D0125C01F401619071904F01682679260D
:1020300061147104B1F40F5F1F4F0630110569F789
:102040008FEF89838A831B820E9411248160782FFD
:102050009D838C8349815A816B818D810E948F047D
:102060003AC08091A20281FD0E94D912D12CEE24A7
:10207000E394F12CC3018E219F21892B29F10E9429
:10208000BB0F8823A9F0DE825F82AE20BF2081E0F3
:10209000AB2809F480E088870E9411248160782FA2
:1020A0009A8789874E815F8168858A850E948F041F
:1020B000000F111FF801E257FD4F80819181E82642
:1020C000F926F182E08207C0D394EE0CFF1CF0E108
:1020D000DF12D0CFB0CF81E0C11001C080E02A96DE
:1020E0000FB6F894DEBF0FBECDBFDF91CF911F9129
:1020F0000F91FF90EF90DF90CF90BF90AF909F90A7
:102100008F907F906F905F9008950E94EA0F0E94D9
:102110007F1C0E94D31F0E94AD150C948404CF93A2
:10212000DF930E94BB11EC01811521E5920708F0B5
:1021300045C0811530E5930708F094C0883E9105AD
:1021400028F5803E910508F0F8C0883A910570F4B2
:10215000853A910508F07CC08130910509F475C07D
:1021600008F4E8C0049708F0E8C0E4C08F3B91058C
:1021700008F0E0C0C85AD0E0CC0FDD1FC35ADE4FD4
:102180000990D881C02DCE019464D8C0811540E259
:10219000940758F4811551E0950708F0CEC08D3EA4
:1021A000910508F4C7C09065C9C0C11580E4D8077F
:1021B00008F4C0C0DF70CE01906AC0C0811525E56B
:1021C0009207A8F4811534E5930708F095C08115AE
:1021D00043E5940708F07BC0811552E5950708F0A8
:1021E00061C0D82FCC27CE01816F906AA7C0C115DE
:1021F00089E5D807A0F4C11528E5D20708F082C008
:10220000C11536E5D30708F095C08C2F0E944F12F8
:102210008F7190E0D82FCC27CE0190628FC0C1156E
:102220004AE5D40708F474C0CE0190568115904257
:1022300008F080C08D2F8F710E944F12DD27D06271
:102240008F71AE01582BCA0179C081E090E076C051
:10225000C55AD0E0C557DE4F8881C82FD0E0CE01E7
:1022600090646CC074E0969587957A95E1F7282F75
:1022700023703C2F337081E090E002C0880F991FDB
:102280003A95E2F79C68AC01522B9A019C2F9F7003
:102290009695969550E2959FE0011124C9018C2BEB
:1022A0009D2B4CC08370992721E030E002C0220FA3
:1022B000331F8A95E2F79C2F9695969580E2989F1A
:1022C000E0011124C22BD32BCE019C6837C0837050
:1022D000992721E030E002C0220F331F8A95E2F7F0
:1022E0009C2F9695969540E2949FE0011124C22B75
:1022F000D32BCE019A6822C0D82FCC27CE01846F71
:10230000906A1CC0DC2FCC27CE01806F906A16C06B
:102310008C2F8F700E944F1294E0D695C7959A9596
:10232000E1F7CF70D0E0DC2FCC27D0699E01282BBD
:10233000C90104C080E090E001C0CE01DF91CF91DF
:102340000895E72FF0E096E0899FE00DF11D11243C
:1023500084E0EE0FFF1F8A95E1F7E60FF11DEE0F07
:10236000FF1FE852FF4F8591949108950E94A1119B
:102370000E948F1008958238910569F1B0F481337D
:10238000910509F46DC048F48932910509F463C0E0
:102390008A32910509F469C008958533910509F4DD
:1023A00055C089339105B9F00895833E910569F1CF
:1023B00038F4803E9105B1F0823E910509F108950F
:1023C000863E9105A9F1873E9105B9F1843E9105BC
:1023D00009F064C023C02091F20220FD4FC021FD0E
:1023E0004DC008958091F20280FD44C08091F302B7
:1023F00080FF44C08091F20284FD42C083EE4DC054
:102400008091F20282FF38C0F5CF8091F20282FD06
:1024100033C08091F30280FD31C0ECCF8091F30294
:1024200081FF32C08091F20284FD2AC087EE35C060
:102430008091F20283FF26C0F5CF8091F20283FDE6
:1024400021C08091F30281FD1FC0ECCF8091F20288
:1024500085FD1CC01DC08091F20285FD19C016C00B
:102460008091F20286FD16C017C08091F20286FDAF
:1024700013C010C089E311C082EE0FC080EE0DC002
:1024800080E00BC086EE09C084EE07C089E205C07B
:1024900085E303C08AE201C081E390E00895909152
:1024A000F20292FF0DC0282F2871283019F4877F7F
:1024B000846006C0282F2471243011F48B7F88603B
:1024C00093FF0DC0282F2871283119F4877E84616D
:1024D00006C0282F2471243111F48B7E886120914D
:1024E000F30220FF0DC0382F3871383019F4877F80
:1024F000816006C0382F3171313011F48E7F8860D1
:1025000021FF0DC0282F2871283119F4877E8161A1
:1025100006C0282F2171213111F48E7E886194FD2F
:10252000877E089580E008950C94EA0E0E94A61319
:102530008FE39CE90197F1F700C000000E94A61309
:1025400080E00E94D01280FF04C00E9494120C947C
:102550005E2408950C9496120E94F00E811102C020
:102560000E94980F0E94FB0E8093A2020E94030F0C
:102570009093F3028093F2020E94AA120E94FF0E2F
:10258000682F70E080E090E00E940C0960910A02E0
:1025900070910B0280910C0290910D020C944409F1
:1025A000E82FF0E0EE0FFF1FE050FD4F808191819A
:1025B0000895089580EA8A95F1F7089500C0089576
:1025C0000C94DA1208950C94E2120C94E3120C9419
:1025D000E2120C94E712F894E82FE295EF70F0E025
:1025E00031A1282F2F7081E090E001C0880F2A953B
:1025F000EAF7982F9095932391A392A1892B82A318
:10260000789408950F931F93CF93DF93CEE9D1E091
:1026100089918F3F11F00E94EB1281E0C43AD807F4
:10262000B9F7CEE8D1E00EE911E089918F3F11F0C2
:102630000E94EB120C171D07C1F7DF91CF911F917C
:102640000F910895BF92CF92DF92EF92FF920F9376
:102650001F93CF93DF938C01C62FD0E0CE0182561B
:102660009E4F6C01FC0190819F3F09F450C0B62E33
:10267000F894E92FE295EF70F0E081A19F7021E0DE
:1026800030E001C0220F9A95EAF7822B81A382A144
:102690002095282322A378940E94DE12EEE8F1E030
:1026A0004EE951E021E030E0E12CF12C61916F3FE7
:1026B00089F0A62FA295AF70B0E090968C9190E033
:1026C0006F7002C0959587956A95E2F780FD02C00C
:1026D000C90102C080E090E0E82AF92A220F331FE6
:1026E0004E175F0719F7F60180818F3F11F00E94A6
:1026F000EB1261E0E114F10409F460E08B2D0E941B
:10270000E012CC0FDD1FC00FD11FF982E882DF91EC
:10271000CF911F910F91FF90EF90DF90CF90BF90DE
:1027200008950E9402138CE0E0E0F3E0DF01982FAF
:102730001D929A95E9F7E4EFF2E0DF011D928A9588
:10274000E9F786E00E94F1130C94DA03FF920F93ED
:102750001F93CF93DF93CDB7DEB72C970FB6F894C6
:10276000DEBF0FBECDBF8E010F5F1F4F8CE0F801A3
:1027700011928A95E9F7F12C6F2DC8010E9422135E
:10278000F394F6E0FF12F8CF4CE050E0B80184EF8C
:1027900092E00E94012CFF24F394009709F4F12C9D
:1027A000892B41F08CE0F801A4EFB2E001900D928A
:1027B0008A95E1F72F2D46E060E073E084EF92E028
:1027C0000E94F2130E94DC038F2D2C960FB6F89412
:1027D000DEBF0FBECDBFDF91CF911F910F91FF9054
:1027E00008950895FF920F931F93CF93DF93F82ED0
:1027F000092F162FD72FC42F222349F081E0809371
:10280000A5020E9411249093A4028093A3028091B8
:10281000A5028823D9F08091A3029091A4020E947E
:102820002924059798F0EF2DF02FA12FBD2F80E0E0
:1028300090E04C2F50E08417950734F421913191AA
:102840002D933D930196F7CF1092A502DF91CF9182
:102850001F910F91FF9008950E9429260E94DE0F7C
:102860000C9435260E9439260E9485100C9453261C
:102870000E94AF230E9410260E94CA0F0E942C14AF
:102880000E9432140E94D40FFBCF8091AC0280FFD3
:1028900006C06091090170E0660F771F26C081FFB6
:1028A00004C06091090184E005C082FF07C0609107
:1028B000090188E0689FB001112417C09091AB0214
:1028C0009923D1F060910801961788F720910901AA
:1028D00088E0289F90011124929FA001939F500DA2
:1028E000112470E0CA010E94872B6038710540F402
:1028F0006115710519F406C068E070E0862F08952F
:102900008FE7089581E008958091AC0280FF08C0B0
:102910006091050170E0759567957595679521C083
:1029200081FF06C06091050170E07595679519C03B
:1029300082FF04C06091050170E010C09091AA026E
:10294000992399F0609104019617A0F780910501F1
:10295000899FC001112470E00E94872B60387105A7
:1029600040F46115710519F406C061E070E0862F2E
:1029700008958FE7089581E008958D3E21F40E9427
:102980004514819504C08E3E29F40E94451480931D
:10299000B00208958F3E21F40E944514819504C031
:1029A000803F29F40E9445148093AF020895893F27
:1029B00019F40E94841405C08A3F31F40E948414E3
:1029C00081958093B10208958B3F21F40E94841475
:1029D000819504C08C3F29F40E9484148093B20234
:1029E00008959FE0980F983078F421E030E0A90135
:1029F00002C0440F551F9A95E2F7CA019091AE02AA
:102A0000892B8093AE0208958D3F21F48091AC0212
:102A100081600BC08E3F21F48091AC02826005C0C2
:102A20008F3F29F48091AC0284608093AC020895BA
:102A30008D3E39F49091B00297FF35C01092B002EC
:102A400059C08E3E29F49091B0021916BCF32BC0E8
:102A50009091AF028F3E29F497FF25C01092AF02EC
:102A600049C0803F19F41916CCF31DC09091B102F2
:102A7000893F29F41916BCF41092B1023BC08A3F79
:102A800019F497FF10C0F8CF8B3F39F49091B20240
:102A900097FF09C01092B2022DC08C3F21F4909193
:102AA000B2021916BCF39FE0980F983080F421E031
:102AB00030E0A90102C0440F551F9A95E2F7CA0100
:102AC00080959091AE0289238093AE0213C08D3F12
:102AD00021F48091AC028E7F0BC08E3F21F4809157
:102AE000AC028D7F05C08F3F29F48091AC028B7FB3
:102AF0008093AC028091AF02811106C08091B00238
:102B0000811102C01092AB028091B102811106C006
:102B10008091B202811102C01092AA0208950E940F
:102B200011242091AF02211104C02091B002222370
:102B300021F09093A9028093A8022091B102211163
:102B400004C02091B202222321F09093A702809327
:102B5000A6028DEA92E00C947D22EF92FF920F93F1
:102B60001F93CF93DF9300D000D000D0CDB7DEB756
:102B700086E0EDEAF2E0DE01119601900D928A9571
:102B8000E1F7E090AF02F090B0020091B102109135
:102B9000B2021092AF021092B0021092B1021092E3
:102BA000B202E11003C0FF2009F45DC08091A802C9
:102BB0009091A9020E942924AC019091AB02992323
:102BC00039F020910A0130E02417350758F04BC046
:102BD00020910B018AE0289F9001112424173507CA
:102BE00018F041C09F3F19F09F5F9093AB02EE2019
:102BF00061F00E9445141E1414F09FEF01C091E093
:102C0000989F902D11249093AF02FF2061F00E94B5
:102C100045141F1414F09FEF01C091E0989F902D70
:102C200011249093B0023091AF023323E1F0209150
:102C3000B0022223C1F045EB3403C00111249923D3
:102C400019F09093AF0203C081E08093AF0235EB9F
:102C50002303C0011124992319F09093B00203C0FB
:102C600081E08093B002011103C0112309F45DC01B
:102C70008091A6029091A7020E942924AC01909114
:102C8000AA02992339F02091060130E02417350774
:102C900058F04BC0209107018AE0289F9001112431
:102CA0002417350718F041C09F3F19F09F5F90939C
:102CB000AA02002361F00E948414101614F09FEF02
:102CC00001C091E0989F902D11249093B10211239F
:102CD00061F00E948414111614F09FEF01C091E07E
:102CE000989F902D11249093B2023091B10233231A
:102CF000E1F02091B2022223C1F045EB3403C00180
:102D00001124992319F09093B10203C081E08093BC
:102D1000B10235EB2303C0011124992319F09093DC
:102D2000B20203C081E08093B2028091AF028111B0
:102D30000BC08091B002811107C08091B102811156
:102D400003C08091B20281110E948F15EB82FC8238
:102D50000D831E8386E0FE013196ADEAB2E001905C
:102D60000D928A95E1F726960FB6F894DEBF0FBE56
:102D7000CDBFDF91CF911F910F91FF90EF900895FC
:102D8000EDEAF2E086E0DF011D928A95E9F7109204
:102D9000AB021092AA021092AC020895EF92FF9239
:102DA0000F931F93CF93DF938B01682F11110AC0EC
:102DB000442329F0E82FF0E0E15DFB4F6491762F8A
:102DC000862F75C0212F30E0E82FF0E0442321F05A
:102DD000E15DFB4FE491F0E046E0049FC001112467
:102DE000CFEFD0E0BE010E94732B4BEA4603C00137
:102DF000479F900D1124800F911D800F911D982FDA
:102E0000990F890FAE01421B530B4E9FD0014F9F6C
:102E1000B00D5E9FB00D11249B2F189FA0011124AF
:102E2000452F55278E01041B150B0E9FA0010F9FE8
:102E3000500D1E9F500D11247E01E81AF108E29EEC
:102E40008001E39E100DF29E100D1124212F3327D7
:102E5000C21BD30BCE9F9001CF9F300DDE9F300D54
:102E6000112462307105A9F048F46115710569F00B
:102E700061307105C9F48B2F752F0DC06430710559
:102E800081F058F06630710579F47E2F8B2F932FE7
:102E90000DC0832F7B2F9E2F09C08E2F7B2F952F48
:102EA00005C08E2F732F02C07E2F852F692FDF91D3
:102EB000CF911F910F91FF90EF90089541E00E94F4
:102EC000CE16089508950E945E170895CF93DF935C
:102ED000762FE901682F842F0E9463177983688316
:102EE0008A83DF91CF91089580910C03282F269536
:102EF00030E02115310519F48170826005C025325A
:102F0000310524F08170886480930C03089588E073
:102F100090E00C94162CCF92DF92EF92FF926B010F
:102F20007C010E947417B701A60188E090E0FF9031
:102F3000EF90DF90CF900C94342CECE0F3E083E042
:102F4000808311828FEF82838383148260817181F9
:102F5000828193810C948B1780910C0380FF02C0B7
:102F60008695089580E0089590911003933018F4A9
:102F70009F5F90931003882351F060910C03709130
:102F80000D0380910E0390910F030C948B170895FD
:102F900081E00C94B41790911003992319F091508B
:102FA00090931003882351F060910C0370910D03EE
:102FB00080910E0390910F030C948B17089581E07C
:102FC0000C94CB1770E00C94E41F60911001809179
:102FD0000C0380FF0AC080910F0123E0829FC00193
:102FE00011248F5E9C4F0C94E217809111019091F7
:102FF0001201891780F7E82FF0E09F01220F331F9D
:10300000E20FF31FEF5EFC4F1182108212828F5F7E
:10301000F0CF90910C0390FF16C090911101209178
:103020001201921770F4E92FF0E0DF01AA0FBB1F25
:10303000EA0FFB1FEF5EFC4F8183608342839F5F3B
:10304000F0CF0C94E5170895CF93DF9300D01F9233
:10305000CDB7DEB790910C0390FF0AC09E012F5FA1
:103060003F4F0E9466174B8169818A810E9409182F
:103070000F900F900F90DF91CF910895CF93DF9332
:10308000EC01EC81F0E0E65DFC4F4491ECE0F3E014
:10309000628181810E9424188C818F5F8C83DF91F3
:1030A000CF910895CF93DF93EC01ECE0F3E04381FF
:1030B00062818C810E9424188C818F5F8C83DF91C8
:1030C000CF9108950F931F93CF93DF9300D01F925A
:1030D000CDB7DEB78C018091B30281110AC09E0189
:1030E0002F5F3F4F4FEF6FEF0E9466178A818093EB
:1030F000B302F8018481813051F028F0823061F40C
:103100004091B3020AC08091B30240E007C06091D1
:10311000B30240E080E003C040E080E060E00E9455
:103120000918F801848190E0019663E070E00E9444
:10313000872B84830F900F900F90DF91CF911F9179
:103140000F910895AF92BF92CF92DF92EF92FF92CC
:103150000F931F93CF93DF9300D01F92CDB7DEB7AD
:10316000182FF62E042FE22E90910C0390FF6DC0C5
:10317000E92FE695AE2FB0E0AC55BE4F8C91809311
:10318000BF029E7F923061F49E012F5F3F4F812FDF
:103190000E9466174B8169818A810E94091843C089
:1031A000823019F400910F033EC0863019F410915B
:1031B0000D0339C08930D9F38931A9F5E9518E2F32
:1031C0008170D82EE695F0E0E65DFB4FA590B490B7
:1031D000C12CBB2460911301C61618F52C2D30E0CC
:1031E000A29EC001A39E900DB29E900D112470E08E
:1031F0000E94732B812FD11002C0860F01C0861B45
:1032000090911101290F311DA901440F551F240F61
:10321000351F2F5E3C4F402F6F2D0E946617C394C1
:10322000D9CF0E94E51710930D03F0920E0300937F
:103230000F03EE2051F060910C0370910D0380910B
:103240000E0390910F030E948B170F900F900F9019
:10325000DF91CF911F910F91FF90EF90DF90CF9072
:10326000BF90AF900895ECE0F3E09181282F438167
:10327000628188E0890F0C94A21881E00C943319C4
:10328000ECE0F3E09181282F4381628188EF890F80
:103290000C94A21881E00C944019ECE0F3E06281F8
:1032A00028E0620F08F46FEF282F438181810C948E
:1032B000A21881E00C944D19ECE0F3E0628128E063
:1032C000621B08F460E0282F438181810C94A218CE
:1032D00081E00C945C19ECE0F3E0438128E0420FBC
:1032E00008F44FEF282F628181810C94A21881E0AD
:1032F0000C946B19ECE0F3E0438128E0421B08F4E6
:1033000040E0282F628181810C94A21881E00C9406
:103310007A1920E00C94A218FF920F931F93CF9379
:10332000DF93EC01F12C0FEF10E060911301F61622
:10333000F0F4809111012F2D30E0280F311DC901CB
:10334000880F991F280F391F2F5E3C4F70E0C8016E
:103350000E94872B962F8C8140910F0360910E0362
:10336000F99E800D11240E946617F394DECF0E940F
:10337000E5179A818C8190FF02C08F5F01C0815058
:103380008C83DF91CF911F910F91FF900895BF9291
:10339000CF92DF92EF92FF920F931F93CF93DF9321
:1033A000FC01828180FF02C00FEF01C001E010E04C
:1033B00080911301181708F040C080911101C12EAF
:1033C000D12CE601C80FD11DCE01880F991FC80F5F
:1033D000D91FCF5EDC4F198218821A8234E0E32EA7
:1033E000F12CB12C8091B5028B0D813114F08F70CE
:1033F00005C087FF03C090911301890F082E000CB0
:10340000990BC816D90691F480910F038E9DA001E7
:103410008F9D500D112455954795559547959E01C3
:1034200060910E0380910D030E946617B00EF1E0CB
:10343000EF1AF108B9F61F5FBBCF0E94E517809124
:10344000B502013031F4811102C080911301815025
:1034500007C090E001966091130170E00E94872BF5
:103460008093B502DF91CF911F910F91FF90EF9064
:10347000DF90CF90BF900895CF93809111019091EC
:103480001201891770F4E82FF0E09F01220F331F1B
:10349000E20FF31FEF5EFC4F1182108212828F5FEA
:1034A000F0CFC0E060911301C617C0F5EC2FF0E03B
:1034B00070E0CF010E94872B20911101820F209193
:1034C000B402022E000C330B90E0E217F307CCF0AD
:1034D00020910E01022E000C330B2E173F078CF0AB
:1034E0009C01220F331F820F931F9C012F5E3C4FC4
:1034F00040910F0360910E0380910D030E946617A7
:103500000BC0FC01EE0FFF1F8E0F9F1FFC01EF5E33
:10351000FC4F118210821282CF5FC4CF0E94E51748
:1035200020910D018091B402820F8093B40290919A
:103530000E01920F90930E0119165CF4082E000CE8
:10354000990B4091130150E04150510984179507A0
:103550001CF0219520930D01CF9108958F929F9299
:10356000AF92BF92CF92DF92EF92FF920F931F9391
:10357000CF93DF938C01FC014481C42FD0E09E01E6
:10358000DE010E94CB2B9B01AC010E94E12B6B0161
:103590007C01E0E2F0E0EC1BFD0BA5E5B0E09B0157
:1035A000AC010E94E12B4B015C019F01DF010E94F5
:1035B000C32B9B01AC010E94EC2B9B01AC012C0D99
:1035C0003D1D4E1D5F1DC501B4010E949B2BC22FE6
:1035D000D22F2A3228F4F3E02F9F900111240DC03E
:1035E00025E530E02C1B3109C901880F991F280FF0
:1035F000391F37FF02C02F5F3F4F35952795C22FE8
:10360000C095F12C85E5E82EED1A80911301F8168E
:10361000C8F4F1FC02C08E2D01C08D2F90911101D4
:103620002F2D30E0290F311DA901440F551F240F04
:10363000351F2F5E3C4F4C2F60910E030E94661782
:10364000F394E3CF0E94E517F8018481811102C051
:1036500091E003C0803219F49FEF90930C01909198
:103660000C01890FF8018483DF91CF911F910F9195
:10367000FF90EF90DF90CF90BF90AF909F908F9092
:1036800008950F931F93CF93DF93EC0100E010E0B8
:1036900080911301282F30E00217130724F5909131
:1036A00011019801290F311DA901440F551F240F45
:1036B000351F2F5E3C4F869590E04C810817190707
:1036C0001CF4442331F002C0411103C040910F03A8
:1036D00001C040E060910E0380910D030E946617C7
:1036E0000F5F1F4FD5CF0E94E5178C8190E00196A8
:1036F000817099278C83DF91CF911F910F9108954D
:10370000ECE0F3E080818E7F808360817181828133
:1037100093810E948B171092C0022FEF80E792E0F6
:10372000215080409040E1F700C000000C94E51764
:10373000ECE0F3E080818E7F80831092C0022FEF57
:1037400080E792E0215080409040E1F700C0000007
:103750000C94E5171092C0028091BD0281110AC03D
:1037600081E08093BD0280910C0381708093BC0244
:103770000C94981B089560910C03669570E04BE0E3
:1037800050E084E191E00E94F42B892B19F481E050
:103790008093C0020E9411249093B7028093B602D6
:1037A000089590910C0390FF35C09170811102C073
:1037B000926006C0853210F0986402C0880F982B82
:1037C00090930C03662351F060910C0370910D03EC
:1037D00080910E0390910F030E948B1760910C0350
:1037E000669570E04BE050E084E191E00E94F42B9C
:1037F000892B19F01092C00202C00E94BB1B81E00D
:103800008093B90240910F0360910E0380910D03E4
:103810000C9489190895682F90910C03969581E076
:10382000890F853208F081E00C94D11B81E00C9463
:103830000B1C682F90910C0396958FEF890F09F45C
:1038400084E20C94D11B81E00C94191C61E00C946F
:10385000D11BECE0F3E080818160808386950C943D
:10386000261C80910C0380FD0C94801B0C94291C59
:1038700060E00C94D11B8091BE0281112EC00E9489
:10388000F00E811104C00E94980F0E949D170E94A3
:10389000871760930C0370930D0380930E0390932E
:1038A0000F036E7F61F40E949D170E94871760933B
:1038B0000C0370930D0380930E0390930F030E94EB
:1038C00074171092C00280910C0380FF03C086958C
:1038D0000E94381C81E08093BE020895ECE0F3E082
:1038E00080818160808386950C94381C1092BD0283
:1038F0008091BC0281110E946E1C0C94BB1B0F9323
:103900001F93CF93DF938091C002882309F485C071
:103910008091BF02E0910C03E695E81BE093B802AA
:10392000823049F4F0E0EA5DFC4FE491CE2FD0E024
:103930000EE318E149C0863049F4F0E0ED5DFC4F3C
:10394000E491CE2FD0E002E518E13EC0893051F479
:10395000E695F0E0E05EFC4FE491CE2FD0E00CE87D
:1039600019E132C08F3051F4E695F0E0E35EFC4F90
:10397000E491CE2FD0E007EC19E126C0853149F45F
:10398000F0E0E65EFC4FE491CE2FD0E00CE31AE1CC
:103990001BC0883181F0833239F4E8E1F3E0C5914E
:1039A000D49102E618E110C0843251F4C4EFD1E0A2
:1039B00001E41BE109C0C8E2D0E00EEA1AE104C04C
:1039C000C0EDD7E002E617E18091B902882361F0EB
:1039D0001092B9020E9411249093B7028093B6020C
:1039E0001092BB021092BA020E941124E091B6021A
:1039F000F091B7028E1B9F0B8F3F9F4770F4EC0F27
:103A0000FD1FF093B702E093B60286EB92E0F80157
:103A1000DF91CF911F910F910994DF91CF911F9169
:103A20000F910895882311F0FA0101C0FB01099458
:103A3000CF93DF93C82FD62F0E94AC178C1740F07E
:103A40000E94AC178D1720F4DF91CF910C94161CB7
:103A50008C2FDF91CF910C94261C1F93CF93DF9373
:103A6000FB0112811111C3C0EC010E94070E82728A
:103A7000CD3CFCE5DF0709F49AC0A8F5C73CECE5AE
:103A8000DE0709F476C0A8F4C43C9CE5D90709F424
:103A90005FC028F4C33CDC4509F457C054C0C53CA2
:103AA0009CE5D90709F459C0C63CDC4509F45CC063
:103AB0004AC0CA3CFCE5DF0709F46AC050F4C83CC0
:103AC000ECE5DE0709F45AC0C93CDC4509F45BC0EB
:103AD0003AC0CB3C9CE5D90709F45FC0CC3CDC453F
:103AE00009F460C030C0C23DFCE5DF0709F46FC0D7
:103AF00088F4CF3C9CE5D90709F460C008F45CC0A9
:103B0000C03DFCE5DF0709F45CC0C13DDC4509F4BC
:103B10005BC019C0C53D9CE5D90709F460C050F4ED
:103B2000C33DFCE5DF0709F455C0C43DDC4509F49D
:103B300054C009C0C63D9CE5D90709F455C0CE352F
:103B4000DD4509F454C011E052C00E94311C4FC041
:103B500043E25CE166E17CE104C046E15CE163E2F2
:103B60007CE10E94121D43C04AE459E16DE379E112
:103B7000F8CF4DE359E16AE479E1F3CF48E659E142
:103B800069E579E1EECF49E559E168E679E1E9CF08
:103B900046E859E167E779E1E4CF47E759E166E8AC
:103BA00079E1DFCF4FED57E168EC77E1DACF48EC10
:103BB00057E16FED77E1D5CF81E017C065E082E096
:103BC00010C068E086E00DC06EE089E00AC064E1E4
:103BD0008FE007C067E185E104C088E106C062E2CA
:103BE00089E10E94181D03C083E20E94261C812FD8
:103BF000DF91CF911F91089586E090E00C940E2CF8
:103C0000682F86E090E00C94222C80914103847010
:103C10008962809341030C94001E0E94F00E811172
:103C200004C00E94980F0E94051E0E94FC1D8093F4
:103C30004103282F26952695269530E0263031051C
:103C400024F087708862809341038091410380FF54
:103C500004C086958695869501C080E00C941E1F51
:103C600020914103822F869586958695482F50E0B6
:103C70004530510554F48F5F982F990F990F990F84
:103C8000822F8770892B809341038091410381604B
:103C9000809341030E94001E809141038695869582
:103CA00086950C941E1F80914103982F96959695AA
:103CB0009695A1F0915E990F990F990F8770892BB6
:103CC00080934103887F91E009F490E08091410363
:103CD00090FB80F9809341030E94001E8091410374
:103CE0008695869586950C941E1F8091410380FDD4
:103CF00013C0816080934103813019F489E080937F
:103D00004103809141030E94001E809141038695EA
:103D1000869586950C941E1F08958091410380FF1F
:103D200008C08E7F809341030E94001E80E00C94A7
:103D30001E1F08958091410380FD0C948D1E0C94EC
:103D4000751E90914103892F8695869586958F5F84
:103D50008F719770863038F4880F880F880F892B01
:103D60008093410302C09093410380914103887F77
:103D700091E009F490E08091410390FB80F98093F9
:103D800041030E94001E8091410386958695869589
:103D90000C941E1F863008F085E0909141039770C7
:103DA000282F220F220F220F922B90934103987FEE
:103DB00021E009F420E09091410320FB90F99093D9
:103DC00041030C941E1F0E94CA1E809141030C9453
:103DD000001E9C01FB018281882349F12E3BFCE5FA
:103DE0003F07C9F040F42C3BECE53E0769F02D3B62
:103DF0003C4561F00895203C9CE5390791F070F056
:103E0000213C3C4589F0089585E001C080E00E9496
:103E1000E31E80E008950E94531EFBCF0E94301ED7
:103E2000F8CF0E949A1EF5CF0E94A11EF2CF81E02A
:103E30000895269A2E9808952E9808958F929F920D
:103E4000AF92BF92CF92DF92EF92FF920F931F93A8
:103E5000CF93DF93C82F863050F4811109C0809131
:103E600080008F7D809380000E941C1F06C0C5E0EB
:103E700080918000806280938000A0918600B09144
:103E800087002C2F30E00E94CB2B25E030E040E073
:103E900050E00E949B2B0027122F232F342F012F3D
:103EA000122F232F332780918600909187006CE09A
:103EB00070E00E94732B6017710730F0C80169E051
:103EC00070E00E94732B5EC0809186009091870005
:103ED000E0908600F0908700E0918600F0918700E6
:103EE000C6E0D0E0BE010E94732B060F171F211DF4
:103EF000311D4801590185E0880C991CAA1CBB1C86
:103F00008A95D1F7C701BE010E94732B6F01E12C86
:103F1000F12CA7019601260F371F411D511DC50128
:103F2000B4010E949B2B69017A01E0918600F09117
:103F30008700CA01B9010E94632B9B01AC01DF011C
:103F40000E94E12B9B01AC01C701B6010E94632BCB
:103F5000DC01CB012FE0B695A795979587952A951B
:103F6000D1F7009186001091870020E030E008171B
:103F700019072A073B0728F4609186007091870093
:103F8000CB01BC0170938B0060938A00DF91CF91CD
:103F90001F910F91FF90EF90DF90CF90BF90AF9067
:103FA0009F908F90089508950E94191F82E2809338
:103FB000800089E1809381008FEF9FEF90938700CD
:103FC000809386000C940D1E6A9A2EB12B7F3EB111
:103FD00034604FB7F894FC01CB01880F991F680F2C
:103FE000791F6E0F7F1FE617F70789F0819198E020
:103FF0003EB9000000C087FF2EB9880F000000C046
:1040000000C000C02EB900C09A9591F7ECCF4FBF09
:104010008FE594E00197F1F700C000000895CF9379
:10402000DF93EC01FB018281882309F43CC1C43099
:10403000FDE5DF0760F4CB3F9CE5D90788F49E01DE
:1040400022503C452431310508F02EC109C0C2364A
:10405000EDE5DE0729F0C63AFDE5DF0709F024C1EA
:104060000E94030F9093F3028093F202C1318CE51A
:10407000D80709F4C6C008F042C0C930ECE5DE0735
:1040800009F49BC000F5C5308CE5D80709F485C05C
:1040900078F4C330ECE5DE0709F478C008F07AC0A4
:1040A000C230DC4509F0F5C08091F2028160EFC0BA
:1040B000C7309CE5D90709F478C008F07AC0809130
:1040C000F2028061E4C0CD30FCE5DF0709F487C06F
:1040D00058F4CB309CE5D90709F479C008F07BC0CF
:1040E0008091F20288606FC0CF30FCE5DF0709F4F1
:1040F00080C008F082C08091F202877FC8C0CE3FA6
:104100009CE5D90709F471C000F5C531FCE5DF076E
:1041100009F485C068F4C3319CE5D90709F475C07A
:1041200008F095C00E94B4088091F2028F77AFC06A
:10413000CC3FFCE5DF07A9F108F054C0CB3FDC45DC
:1041400009F0A7C08091F30240C0C230EDE5DE0760
:1041500009F489C058F4C1158DE5D80709F45AC08F
:1041600008F069C08091F30282602FC0C236EDE58D
:10417000DE0709F47CC0C63AFDE5DF0709F481C01B
:10418000C330DD4509F085C080E06EC08091F20249
:1041900082607DC08091F20216C08091F202886038
:1041A00076C08091F30282604FC08091F2028062FB
:1041B0006EC08091F20280646AC00E94B40880914F
:1041C000F202806864C0846062C081603DC08091FA
:1041D000F2028E7F5CC08091F2028D7F58C0809188
:1041E000F20216C08091F30218C08091F3028D7F15
:1041F0002BC08091F2028F7E4AC08091F2028F7DA7
:1042000046C08091F2028F7B42C08091F202877F8C
:104210008B7F3DC08091F3028D7F8E7F15C0809192
:10422000F20282FB222720F991E0922790FB82F98B
:1042300090FB83F92CC08091F302982F9095917098
:104240008E7F892B90FB81F98093F30222C00E941C
:10425000B4088091F20287FB222720F991E092278F
:1042600090FB87F914C081E00E949A0F12C08091E0
:10427000F20284FB222720F991E0922790FB84F937
:1042800006C08091F202982F909590FB80F9809360
:10429000F2028091F2029091F3020E94140F0E94A8
:1042A000B40880E001C081E0DF91CF910895CF9301
:1042B000DF9386319C4541F5EB010E94070E982F54
:1042C0008A812091020130910301882379F09A7A42
:1042D00081E009F480E08093C102911102C069E29B
:1042E00001C065E3C9010E944D230AC08091C1024B
:1042F000811102C069E201C065E3C9010E9458232F
:104300000E94490E80E001C081E0DF91CF910895C5
:104310000F931F93CF93DF93C42FD22FFC01828181
:104320008823C9F04093C4020E9411249093C302D1
:104330008093C20280E28C0F883008F057C0C770AB
:1043400081E001C0880FCA95EAF7DF91CF911F91F4
:104350000F910C9411068091C402481330C08091D3
:10436000C2029091C3020E942924883C910538F52D
:1043700010E21D0FCD17B9F080E28C0F883040F4A9
:10438000C77081E001C0880FCA95EAF70E9418063D
:10439000183028F581E09D2F977001C0880F9A95FD
:1043A000EAF70E941106802F0E9408061830F0F4E8
:1043B000D77081E001C0880FDA95EAF70AC080E281
:1043C0008C0F883098F4C77081E001C0880FCA95BF
:1043D000EAF7DF91CF911F910F910C941806802F6F
:1043E000DF91CF911F910F910C940806DF91CF912F
:1043F0001F910F9108950F939C01CB01243F4CE531
:10440000340731F188F4293DFCE53F07D9F02A3D16
:104410004CE5340779F1283D3C45A9F506E221EE4B
:1044200041EE68ED7CE52BC0263FFCE53F07E1F05F
:10443000A8F0273F3C4539F507E225EE46EE67EF49
:104440007CE51DC007E225EE45EE69ED7CE517C071
:1044500006E221EE40EE64EF7CE511C007E225EEB6
:1044600044EE65EF7CE50BC006E221EE42EE66EF1E
:104470007CE505C008E221E045EE6AED7CE50E949E
:10448000882180E008C0FC018281882319F0109205
:10449000C40201C081E00F9108959093CB018093F5
:1044A000CA0108959093CA028093C9020895E091C9
:1044B000C902F091CA02309721F00190F081E02DFD
:1044C000099480E00895E091C902F091CA02309702
:1044D00099F020912B01222359F02091F20227FF1D
:1044E00007C0DC012C9111962C93119726E02C9398
:1044F0000280F381E02D09940895E091C902F091C2
:10450000CA02309739F022E0DC012C930480F58157
:10451000E02D099408952091C7023091C802281710
:10452000390771F09093C8028093C702E091C902E5
:10453000F091CA02309721F00680F781E02D0994AE
:1045400008952091C5023091C6022817390771F0ED
:104550009093C6028093C502E091C902F091CA020D
:10456000309721F00084F185E02D09940895FC0135
:10457000329680912B01882331F08091F20287FFDF
:1045800002C09EE101C096E080E0915028F02191A8
:104590002223D9F38F5FF9CF0895662351F120913B
:1045A0002B012223E9F02091F20227FF19C0462FA8
:1045B0004695469546954E31E0F4677021E030E02F
:1045C00002C0220F331F6A95E2F7FC01E40FF11DD0
:1045D000828190E02823392381E0232B69F409C0EC
:1045E000FC01329608962191621729F0E817F90725
:1045F000D1F780E0089581E008959C01FC01329696
:104600009FEF80E04191461789F09F3F19F44111D7
:1046100001C0982F8F5F8630A9F79F3F39F0F901CD
:10462000E90FF11D97FDFA956283089508959C01A5
:104630002A5F3F4FFC014281461301C0128201965E
:1046400082179307B9F70895262F26952695269564
:104650002E3168F4FC01E20FF11D677021E030E0BB
:1046600001C0220F6A95EAF78281282B22830895E0
:10467000262F2695269526952E3170F4FC01E20F03
:10468000F11D677021E030E001C0220F6A95EAF762
:104690002095828128232283089520912B012223B3
:1046A00029F02091F20227FD0C9424230C94FD2282
:1046B00020912B01222329F02091F20227FD0C9456
:1046C00038230C94172320912B01FC0132962223CE
:1046D00031F08091F20287FF02C08EE101C086E0D6
:1046E000DF011D928A95E9F7089508950C947523CA
:1046F00083E08093CB020C947623811102C081E089
:1047000001C082E08093CB020C9476230C947D232D
:1047100081E08093CB020C9476230C948823089537
:104720000C948F230C9490230C948F230C948F2340
:104730000C948F23CF930E9496230E94A6130E946D
:104740009423C0E08C2F0E94D012892B29F4CF5FD4
:10475000C630C1F780E001C081E0CF91089508958F
:104760001F920F920FB60F9211248F939F93AF93C6
:10477000BF938091CC02811113C08091420390912C
:104780004303A0914403B09145034196A11DB11D7F
:104790008093420390934303A0934403B093450353
:1047A000BF91AF919F918F910F900FBE0F901F906F
:1047B000189580914A03843031F10E944E04109282
:1047C000CC0220E488E190E00FB6F894A89580939D
:1047D00060000FBE2093600083B7817F846083BF39
:1047E00083B7816083BF7894889583B78E7F83BFBA
:1047F0000FB6F894A895809160008861809360005E
:10480000109260000FBE08950E94B4080C945704E3
:1048100082E084BD93E095BD9AEF97BD80936E00D2
:1048200008952FB7F8948091420390914303A0918B
:104830004403B09145032FBF08952FB7F8946091BA
:1048400042037091430380914403909145032FBF2D
:1048500008959C014FB7F8948091420390914303CF
:10486000A0914403B09145034FBF821B930B089561
:1048700078941F920F920FB60F9211248F939F93EB
:10488000AF93BF938091420390914303A09144035F
:10489000B09145030196A11DB11D809342039093F1
:1048A0004303A0934403B0934503BF91AF919F91FD
:1048B0008F910F900FBE0F901F90189581E08093FD
:1048C000E00080E28093D8001092C9008FE19EE45E
:1048D0000197F1F700C0000087E090EBDC018093C6
:1048E000530390935403A0935503B09356039CE055
:1048F00088E10FB6F894A895809360000FBE90935E
:104900006000FFCF8091F0020895089522E0209387
:10491000E9002FEF3091E800215035FD06C035ED5C
:104920003A95F1F700002111F5CF2091E80025FF1D
:104930000BC040E050E066E070E00E94C526809128
:10494000E8008E778093E8000895CF93DF9320915D
:104950002B01222339F02091F20227FF03C060E2ED
:1049600022E002C068E021E02093E9002FEF3091BF
:10497000E800215035FD06C035ED3A95F1F700000D
:104980002111F5CF2091E80025FF1DC0EC01809199
:104990002B01811105C040E050E068E070E003C0E9
:1049A00070E040E050E0CE010E94C5268091E80012
:1049B0008E778093E80080E2FE01A0EDB2E00190E6
:1049C0000D928A95E1F7DF91CF9108958093CD0202
:1049D0007093CF026093CE0280914A03843001F538
:1049E00082E08093E9008FEF9091E800815095FD7F
:1049F00006C095ED9A95F1F700008111F5CF8091F1
:104A0000E80085FF0DC040E050E063E070E08DEC11
:104A100092E00E94C5268091E8008E778093E8009E
:104A20000895BC0184E00C94E624BC0183E00C945E
:104A3000E62480914903811109C00E9456280E94F2
:104A4000B3288091E20084608093E2000895109280
:104A5000490308950C948D236091460381E0611110
:104A600001C080E00C94782390914A0381E0943057
:104A700009F080E0609146030C947D2342E061ECF4
:104A800081E00E94CF2742E261EC82E00E94CF27C2
:104A900090914A0381E0943009F080E060914603F0
:104AA0000C94862380914C03833009F461C030F468
:104AB000813071F0823009F49AC008958A3009F487
:104AC00086C08B3009F46CC0893009F0A8C020C0C2
:104AD00080914B03813A09F0A2C08091E800877F62
:104AE0008093E80080914F0390915003892B21F42B
:104AF00060E280ED92E003C060E080E090E070E072
:104B00000E9410278091E8008B778093E800089539
:104B100080914B03813209F082C080914F039091C4
:104B20005003029708F07BC08091E800877F809354
:104B3000E8008091E80082FD05C080914A03811160
:104B4000F8CF6DC02091F3008091F20090E0922B9D
:104B5000029731F48091F100813011F0863021F418
:104B60008091F1008093F0028091E8008B7753C030
:104B700080914B03813A09F052C080914F0390918C
:104B80005003892B09F04BC08091E800877F809308
:104B9000E8008091E80080FFFCCF80912B0136C0B7
:104BA00080914B038132D9F580914F03909150034E
:104BB000892BA9F58091E800877F8093E8000E9407
:104BC000042880914D0380932B010C94B4088091AC
:104BD0004B03813221F58091E800877F8093E800C4
:104BE0000E94042880914E038093F10208958091E1
:104BF0004B03813AA1F48091E800877F8093E8001D
:104C00008091E80080FFFCCF8091F1028093F10059
:104C10008091E8008E778093E8000C940428089532
:104C200084B7877F84BF0FB6F894A8958091600001
:104C3000886180936000109260000FBE90E080E871
:104C40000FB6F89480936100909361000FBE0C94AE
:104C500088230E9456280E94B328E2EEF0E080816B
:104C60008460808378940C94482B8FE191E00C94BD
:104C7000522280914A038530A9F480914A038530FD
:104C800079F40E94D923809148038823B1F30E94CC
:104C90009A23882391F30E94AF260E94B408EDCF97
:104CA0000C940424089508950C945626292F332734
:104CB00023303105C9F060F42130310581F0223014
:104CC000310509F044C08BE390E029E535E043C0AD
:104CD00021323105E1F02232310549F138C082E15B
:104CE00090E024E935E037C099278130910549F0FB
:104CF00028F0029761F5EFE2F5E005C0E5E5F5E0A3
:104D000002C0EDE3F5E0849190E09F0124C06115BD
:104D1000710541F061307105D1F489E090E024E83B
:104D200035E019C089E090E02BE635E014C061154C
:104D3000710541F06130710551F486EB90E026EA8F
:104D400035E009C080E490E02CE536E004C080E066
:104D500090E020E030E0FA0131832083089580E183
:104D600089BD82E189BD09B400FEFDCF8091D800E4
:104D70008F7D8093D8008091E00082608093E00076
:104D80008091E00081FDFCCF0895CF92DF92EF92F9
:104D9000FF920F931F93CF93DF93EC018B017A0166
:104DA0000E942328811133C0E114F10439F0F70186
:104DB00080819181081B190BC80FD91FC12CD12CE0
:104DC0000115110519F18091E80085FD16C080914B
:104DD000E8008E778093E800E114F10449F0F701D0
:104DE00080819181C80ED91ED182C08285E00FC01A
:104DF0000E942328882321F30AC089918093F1001F
:104E000001501109FFEFCF1ADF0ADACF80E0DF91FE
:104E1000CF911F910F91FF90EF90DF90CF90089569
:104E200020915103309152032617370748F061153E
:104E3000710539F42091E8002E772093E80001C035
:104E4000B901FC0120E06115710579F180914A03F7
:104E50008823F1F18530F1F18091E80083FD3CC0B9
:104E60008091E80082FD2EC08091E80080FFEBCFAA
:104E70002091F3008091F20090E0922B6115710572
:104E800051F08830910538F421912093F100615060
:104E900071090196F3CF21E0089709F020E0809195
:104EA000E8008E778093E800CECF2111CFCF0AC0E3
:104EB00080914A03882361F0853061F08091E80099
:104EC00083FD0AC08091E80082FFF2CF80E0089560
:104ED00082E0089583E0089581E0089520915103D0
:104EE000309152032617370748F06115710539F4E0
:104EF0002091E8002E772093E80001C0B901FC0161
:104F000020E06115710591F180914A03882309F42D
:104F100040C0853009F43FC08091E80083FD3DC06A
:104F20008091E80082FD2FC08091E80080FFE9CFEA
:104F30002091F3008091F20090E0922B61157105B1
:104F400059F08830910540F424912093F100319676
:104F5000615071090196F2CF21E0089709F020E035
:104F60008091E8008E778093E800CBCF2111CCCFE1
:104F70000AC080914A03882361F0853061F08091F6
:104F8000E80083FD0AC08091E80082FFF2CF80E054
:104F9000089582E0089583E0089581E00895982FB0
:104FA000973068F59093E900981739F07091EC000C
:104FB0002091ED005091F00003C0242F762F50E097
:104FC00021FD02C09F5FECCF3091EB003E7F30931C
:104FD000EB003091ED003D7F3093ED003091EB0020
:104FE00031603093EB007093EC002093ED00509310
:104FF000F0002091EE0027FDE5CF80E008958F704E
:105000008093E90081E0089580914B0387FF11C0F0
:105010008091E80082FD05C080914A038111F8CF9C
:1050200011C08091E8008B770BC080914A038823E0
:1050300049F08091E80080FFF8CF8091E8008E77FA
:105040008093E80008952091E4003091E50095E612
:105050004091EC00842F817040FF23C08091E800D4
:1050600080FD1DC080914A03882399F0853099F016
:105070008091EB0085FD11C04091E4005091E50066
:105080002417350729F3915011F09A01E1CF84E0FC
:10509000089582E0089583E0089581E0089580E016
:1050A00008954091E80042FFDDCF08950E94C42892
:1050B0000E94CC28E0EEF0E0808181608083E8ED02
:1050C000F0E080818F77808319BCA7EDB0E08C91F0
:1050D0008E7F8C9380818F7E808310924903089508
:1050E0000F931F93CF93DF930E94C4280E94CC2874
:1050F000C8EDD0E088818F77888388818068888335
:1051000088818F7D888319BC10924A0310924603D0
:10511000109248031092470300EE10E0F8018081DE
:105120008B7F808388818160888342E060E080E0BB
:105130000E94CF27E1EEF0E080818E7F8083E2EE57
:10514000F0E0808181608083808188608083F801C5
:1051500080818E7F8083888180618883DF91CF9179
:105160001F910F910895E8EDF0E080818F7E80839C
:10517000E7EDF0E080818160808384E082BF81E0A0
:10518000809349030C947028E8EDF0E080818E7FD5
:1051900080831092E20008951092DA001092E100EC
:1051A00008951F920F920FB60F9211242F933F93E1
:1051B0004F935F936F937F938F939F93AF93BF931F
:1051C000EF93FF938091E10082FF0BC08091E2009A
:1051D00082FF07C08091E1008B7F8093E1000E94F5
:1051E000472B8091DA0080FF1FC08091D80080FF9C
:1051F0001BC08091DA008E7F8093DA008091D90005
:1052000080FF0DC080E189BD82E189BD09B400FE47
:10521000FDCF81E080934A030E94192505C019BC87
:1052200010924A030E9427258091E10080FF19C057
:105230008091E20080FF15C08091E2008E7F809314
:10524000E2008091E20080618093E2008091D800CA
:1052500080628093D80019BC85E080934A030E9445
:105260002C258091E10084FF30C08091E20084FF12
:105270002CC080E189BD82E189BD09B400FEFDCF6B
:105280008091D8008F7D8093D8008091E1008F7E3F
:105290008093E1008091E2008F7E8093E200809114
:1052A000E20081608093E20080914603882311F040
:1052B00084E007C08091E30087FD02C081E001C067
:1052C00083E080934A030E9434258091E10083FFAC
:1052D00029C08091E20083FF25C08091E100877F93
:1052E0008093E10082E080934A031092460380910C
:1052F000E1008E7F8093E1008091E2008E7F8093B9
:10530000E2008091E20080618093E20042E060E090
:1053100080E00E94CF278091F00088608093F000A9
:105320000E942A25FF91EF91BF91AF919F918F919C
:105330007F916F915F914F913F912F910F900FBE91
:105340000F901F9018951F920F920FB60F92112475
:105350002F933F934F935F936F937F938F939F937D
:10536000AF93BF93CF93DF93EF93FF93C091E90087
:10537000CF708091EC00D82FD17080FDD0E81092D2
:10538000E9008091F000877F8093F00078940E947C
:10539000E7291092E9008091F00088608093F00086
:1053A000CD2BCF70C093E900FF91EF91DF91CF91AA
:1053B000BF91AF919F918F917F916F915F914F912D
:1053C0003F912F910F900FBE0F901F9018951F9334
:1053D000CF93DF93CDB7DEB7AA970FB6F894DEBFB1
:1053E0000FBECDBFEBE4F3E08091F100819323E0A9
:1053F000E335F207C9F70E9452258091E80083FF48
:105400002EC180914B0390914C03492F50E04A30BC
:10541000510508F024C1FA01EE59FF4F0C94BD2B41
:10542000803821F0823809F01AC108C08091470302
:1054300090914803992389F082600FC080914F03B7
:105440008F70873008F00BC18093E9008091EB00EA
:1054500085FB882780F91092E9009091E800977FFA
:105460009093E8008093F1001092F100D1C0282FB2
:105470002D7F09F0F4C0882319F0823061F0EFC06D
:1054800080914D03813009F0EAC0933009F080E04B
:10549000809348032EC080914D0381112AC08091D2
:1054A0004F038F702FEF280F263008F0D8C080935D
:1054B000E9002091EB0020FF1CC0933021F4809183
:1054C000EB00806214C09091EB0090619093EB0030
:1054D00021E030E0A90102C0440F551F8A95E2F790
:1054E0004093EA001092EA008091EB00886080937C
:1054F000EB001092E9008091E800877F8093E8003C
:105500000E940428ACC08111AAC010914D031F77DE
:105510008091E3008078812B8093E3008091E80004
:10552000877F8093E8000E9404288091E80080FF34
:10553000FCCF8091E30080688093E300111102C0EA
:1055400082E001C083E080934A0389C080588230A2
:1055500008F085C080914D0390914E038C3D53E03F
:10556000950779F583E08A838AE289834FB7F894B7
:10557000DE01139620E03EE051E2E32FF0E050938D
:105580005700E49120FF03C0E295EF703F5FEF709A
:105590008E2F90E0EA3010F0C79601C0C0968D9330
:1055A0009D932F5F243149F74FBF8091E800877F9B
:1055B0008093E8006AE270E0CE0101960E94102715
:1055C00016C060914F0370915003AE014F5F5F4F63
:1055D0000E945426BC01892B09F441C09091E80037
:1055E000977F9093E80089819A810E946E2780912D
:1055F000E8008B778093E80032C0803881F5809195
:10560000E800877F8093E800809146038093F10053
:105610008091E8008E7772CF811121C080914D0377
:1056200090914E0399270297D4F48091E800877FE8
:105630008093E80080914D03809346030E940428E4
:1056400080914603811106C08091E30087FD02C06E
:1056500081E001C084E080934A030E943E2580914E
:10566000E80083FF0AC08091E800877F8093E8000C
:105670008091EB0080628093EB00AA960FB6F894BD
:10568000DEBF0FBECDBFDF91CF911F91089508956A
:10569000CF9380914A038823A1F0C091E900CF7095
:1056A0009091EC00892F817090FD80E8C82B1092BA
:1056B000E9008091E80083FD0E94E729CF70C09344
:1056C000E900CF910895DB018F939F930E94E12B16
:1056D000BF91AF91A29F800D911DA39F900DB29F8E
:1056E000900D11240895AA1BBB1B51E107C0AA1FEE
:1056F000BB1FA617B70710F0A61BB70B881F991F73
:105700005A95A9F780959095BC01CD01089597FB16
:10571000072E16F4009407D077FD09D00E94732B52
:1057200007FC05D03EF4909581959F4F08957095A4
:1057300061957F4F0895A1E21A2EAA1BBB1BFD01A4
:105740000DC0AA1FBB1FEE1FFF1FA217B307E40760
:10575000F50720F0A21BB30BE40BF50B661F771FB8
:10576000881F991F1A9469F7609570958095909598
:105770009B01AC01BD01CF010895EE0FFF1F059005
:10578000F491E02D09940E94CB2B332312F48A1B51
:105790009B0B0C94DC2BA29FB001B39FC001A39F75
:1057A000700D811D1124911DB29F700D811D11245A
:1057B000911D08950E94CB2BB7FF0895821B930B78
:1057C00008950E94CB2BA59F900DB49F900DA49F90
:1057D000800D911D11240895B7FF0C94E12B0E94B8
:1057E000E12B821B930B0895FC014150504030F097
:1057F00001900616D1F73197CF0108958827992790
:105800000895FB01DC0104C08D910190801921F401
:1058100041505040C8F7881B990B0895F999FECF65
:1058200092BD81BDF89A992780B50895A6E1B0E0B0
:1058300044E050E00C94482CA8E1B0E042E050E095
:105840000C94482C262FF999FECF92BD81BDF89A71
:10585000019700B4021639F01FBA20BD0FB6F894B4
:10586000FA9AF99A0FBE08950396272F0E94232CC7
:105870000E94222C252F0E94232C242F0C94232CB1
:105880000196272F0E94232C0C94222CDC01CB01A3
:10589000FC01F999FECF06C0F2BDE1BDF89A319640
:1058A00000B40D9241505040B8F70895F894FFCFDE
:1058B000C8006C02280850011E0A140101010200F0
:1058C0001000101001191A1B1C1D1E1F20212282FE
:1058D00024A524862415251125852401E200E9004C
:1058E000EA00B500B600B700CD008301CC008A0104
:1058F000920194012102230224022502260227029A
:105900002A02B300B4006F007000818283E200E9D4
:1059100000EA00B500B600B700CD008301CC008AD4
:10592000019201940121022302240225022602276A
:10593000022A02B300B4006F007000818283F0F18C
:10594000C66766F59431303534979633F4F6909106
:105950009293953700010202020206060609090920
:105960000909090F0F0F0F0F0F1515151819191920
:0A5970001919191919191923240037
:00000001FF
