:100000000C9462030C94A9030C94A9030C94A90307
:100010000C94A9030C94A9030C94A9030C94A903B0
:100020000C94A9030C94A9030C94B92A0C948B2B5F
:100030000C94D2250C94A9030C94A9030C94A90345
:100040000C94A9030C94A9030C94A9030C94A90380
:100050000C94A9030C942B260C94A9030C94A903CB
:100060000C94A9030C94A9030C94A9030C94A90360
:100070000C94A9030C94A9030C94A9030C94A90350
:100080000C94A9030C94A9030C94A9030C94A90340
:100090000C94A9030C94A9030C94A9030C94A90330
:1000A0000C94A9030C94A9030C94A903011B011B34
:1000B000331B331B801B9E1BBF1CBF1CA91B3E1C7C
:1000C0004F1C4F1CAF1CBF1CBF1CB81C5F1D5F1D0D
:1000D000711D711D681D711D711D711D5F1D5F1DDD
:1000E0006D1D711D711D6D1DF82B1F2C172D1F2CE3
:1000F000172D6B2C8E2C172DE52CF42C29003A0093
:100100003B003C003D003E003F00400041004200FB
:10011000430044004500460047004C0035001E00E7
:100120001F002000210022002300240025002600BB
:1001300027002D002E0000002A004A002B0000009E
:1001400014001A000800150017001C0018000C000D
:10015000120013002F00300031004B003900000066
:1001600004001600070009000A000B000D000E0035
:100170000F0033003400280000004E00E1000000B2
:100180001D001B00060019000500110010003600BC
:10019000370038000000E50052004D00E000E300A9
:1001A0000000E200000000002C0000000000000041
:1001B0000151E600E400500051004F0001530000DF
:1001C000000000000000000000000000000000002F
:1001D000000000000000000000004C0000000000D3
:1001E000000000000000000000000000000000000F
:1001F00000000000000000002A0000002B000000AA
:10020000000000004D000000000000004B00000056
:100210000000000000000000310000003900000074
:10022000000000004E00000000005000510052008D
:100230004F0000000000280000000000E100000066
:1002400000000000000000004A0000000000000064
:10025000000000000000E50000000000E000E300F6
:100260000000E200000000002C0000000000000080
:1002700001000251E400000000000000C35CC45C07
:10028000C65CC85CCA5CCC5C0000000000000000DA
:100290000000000000000000000000000000C55C3D
:1002A000C75CC95CCB5CCD5C0000000000000000B6
:1002B000000000000000000000000000000000003E
:1002C000CE5CCF5CD05CD15CD25CD35CD45CD55CC2
:1002D000D65C0000000000000000000000000000EC
:1002E000000000000000000000000000000000000E
:1002F00000000000000000000000000000000000FE
:1003000000000000000000000000000000000000ED
:1003100000000000000000000000000000000000DD
:1003200000000000000000000000000000000000CD
:100330000000010000000000000000001E0F05008A
:10034000047F3F1F643214643214783C1E1E140A6A
:10035000052223252628292A2C2D2F303233353605
:10036000383A3B3D3E4042434547494A4C4E505146
:10037000535557595A5C5E6062646668696B6D6F6D
:1003800071737577797B7D7F81838587898A8C8E70
:1003900090929496989A9C9E9FA1A3A5A7A8AAAC78
:1003A000AEAFB1B3B4B6B8B9BBBCBEBFC1C2C3C5B2
:1003B000C6C7C9CACBCCCDCED0D1D2D2D3D4D5D654
:1003C000D7D7D8D9D9DADADBDBDBDCDCDCDCDCDD87
:1003D000DDDDDDDCDCDCDCDCDBDBDBDADAD9D9D86B
:1003E000D7D7D6D5D4D3D2D2D1D0CECDCCCBCAC903
:1003F000C7C6C5C3C2C1BFBEBCBBB9B8B6B4B3B132
:10040000AFAEACAAA8A7A5A3A19F9E9C9A989694CC
:1004100092908E8C8A89878583817F7D7B797775A1
:1004200073716F6D6B6968666462605E5C5A595780
:10043000555351504E4C4A4947454342403E3D3B3F
:100440003A3836353332302F2D2C2A2928262523C9
:1004500022FFAA7F554000010101010101010101B4
:100460000202020202020202020303030303030365
:100470000304040404040404050505050506060632
:100480000606070707070708080808090909090AEF
:100490000A0A0B0B0B0C0C0C0D0D0D0E0E0E0F0F94
:1004A0000F10101111111212131314141515161622
:1004B0001717181819191A1A1B1B1C1D1D1E1E1F91
:1004C0002020212222232424252626272829292AE0
:1004D0002B2C2D2D2E2F3031323233343536373808
:1004E000393A3B3C3D3E3F40414243444546474804
:1004F000494A4C4D4E4F50515354555658595A5BDA
:100500005D5E5F616264656668696B6C6D6F707279
:10051000737577787A7B7D7E8082838587888A8CE5
:100520008E8F91939596989A9C9EA0A2A3A5A7A919
:10053000ABADAFB1B3B5B7BABCBEC0C2C4C6C9CB10
:10054000CDCFD1D4D6D8DBDDDFE2E4E7E9EBEEF0C6
:10055000F3F5F8FAFDFF0C034B00420044003700AE
:1005600035000000160371006D006B00620075001D
:1005700069006C0064006500720000000403090457
:1005800009023B00020100A0FA0904000001030176
:100590000100092111010001224000070581030823
:1005A000000A0904010001030000000921110100F3
:1005B0000122B6000705820320000A120110010083
:1005C000000008424B6160020001020001050109C0
:1005D00002A10185020901A10005091901290815D7
:1005E00000250195087501810205010930093115C1
:1005F00081257F95027508810609381581257F952B
:100600000175088106050C0A38021581257F9501C0
:1006100075088106C0C005010980A1018503190183
:100620002AB700150126B700950175108100C00595
:100630000C0901A101850419012AA002150126A0B7
:1006400002950175108100C005010906A10185050B
:10065000050719E029E715002501950875018102B4
:100660000507190029EF1500250195F07501810294
:100670000508190129059505750191029501750374
:100680009101C005010906A101050719E029E71537
:100690000025019508750181029501750881010504
:1006A00007190029FF150026FF009506750881002F
:1006B0000508190129059505750191029501750334
:1006C0009101C00011241FBECFEFDAE0DEBFCDBF25
:1006D00004B603FE27C08091860390918703A09102
:1006E0008803B09189038730904BA740B04BD1F479
:1006F0001092860310928703109288031092890348
:1007000014BE84B7877F84BF0FB6F894A8958091F4
:100710006000886180936000109260000FBEE0E08E
:10072000F8E3099511E0A0E0B1E0E4E7FDE502C0DF
:1007300005900D92A03DB107D9F723E0A0EDB1E0FF
:1007400001C01D92A638B207E1F70E94F3270C946E
:10075000B82E0C94000081E0089581E008950C9477
:10076000AD0308950C94B1031F93CF93DF9300D092
:1007700000D01F92CDB7DEB749835A836B83309187
:100780005F0289819A81311114C0662359F02223B6
:1007900049F00E949822182F682F89819A810E941F
:1007A000412203C00E946C22182F69817A81812F17
:1007B00004C00E94982269817A810F900F900F9057
:1007C0000F900F90DF91CF911F910C949704FC0133
:1007D000262F408151816281738184810C94B403FE
:1007E000CF93DF93EC0160E00E94E703BE01DF914D
:1007F000CF910C94B2030E941B080E9487040E94B0
:1008000096150C9458080C94540808950E944D1D98
:100810000E9405042FEF84E39CE02150804090402B
:10082000E1F700C000000C9451260F931F93CF9363
:10083000DF938C0161E00E94E703EC01B8010E94A4
:10084000AF03882309F44BC0B801CE010E94F7140E
:10085000882309F444C0B801CE010E9444168823BD
:10086000F1F1B801CE010E9496168823C1F1B801BA
:10087000CE010E94C117882391F1B801CE010E94D8
:100880003B13882361F1F8018281882309F1CB357C
:100890008DE5D807C1F050F4C115FCE5DF0781F004
:1008A000CF3DDC45A9F40E94AD2419C0CC35EDE55F
:1008B000DE0761F0CD35DD4559F40E942B2308C0D9
:1008C0000E9406040CC00E94342302C00E943723F9
:1008D000C801DF91CF911F910F910C94AB0380E081
:1008E000DF91CF911F910F91089508950C94750495
:1008F00081E00895CF93C82F0E947804882329F0BF
:10090000C1FD02C02A9A01C02A98CF910895229A67
:100910002A9A0895CF93C82F0E9476048C2F0E94A4
:100920007A04CF91089580E090E008950895E72F2C
:10093000F0E096E0899FE00DF11D112484E0EE0FB8
:10094000FF1F8A95E1F7E60FF11DEE0FFF1FE45040
:10095000FF4F859194910895880F991FFC01E45CE5
:10096000FC4F859194910895CF93DF930E94970453
:100970000E94CC05EC018115904508F041C0C115DD
:1009800080E4D80708F0D1C0C83ED10510F5C03EBC
:10099000D10508F0FDC0C83AD10578F4C53AD105B3
:1009A00008F0A2C0C130D10509F4F2C008F4EEC0CD
:1009B000C430D10508F0ECC0E9C0CF3BD10508F444
:1009C0009BC0C03CD10508F4E1C0CE01805C910918
:1009D0009EC0C11590E2D90758F4C11521E0D20795
:1009E00008F0D6C0CD3ED10508F4D0C0D065D0C047
:1009F000C11580E3D80708F08EC0CE019F7087C074
:100A0000C11595E5D90708F043C0C11524E5D20703
:100A100008F0A2C0C11582E5D80708F5C11591E517
:100A2000D90708F085C0CE0174E0969587957A9530
:100A3000E1F783709C2F937021E030E002C0220F19
:100A4000331F9A95E2F73C68382BCF70C695C69550
:100A500080E2C89FE0011124C22BD32B99C09E01D4
:100A6000237033278C2F86958695C115D34508F0C2
:100A700064C0C1E0D0E002C0CC0FDD1F2A95E2F7D0
:100A800020E2829FC0011124C82BD92BDC6880C0D2
:100A9000C11529E5D207A0F4C11588E5D80708F0EB
:100AA00060C0C11596E5D90708F070C08C2F0E9470
:100AB00060068F71C82FD0E0DC2FCC27D06268C0D1
:100AC000C1152AE5D20708F451C0CE019056811510
:100AD000904208F05BC08D2F8F710E946006DD2769
:100AE000D0628F71D82B54C0C55AD0E0C65ADE4FA1
:100AF000C881D0E0D0644CC0C85AD0E0CC0FDD1F14
:100B0000C45DDE4F0990D881C02DD46441C00E94DD
:100B1000AC04EC013DC0CE019927D3FF03C0EC012A
:100B2000D86C36C0EC01D06C33C0DF70D06A30C0F6
:100B3000DC2FCC27C16FD06A2BC0C1E0D0E002C04F
:100B4000CC0FDD1F2A95E2F720E2829FC00111241D
:100B5000C82BD92BDA681CC0DC2FCC27C46FD06A15
:100B600017C0DC2FCC27C06FD06A12C08C2F8F70BB
:100B70000E94600694E0D695C7959A95E1F7CF70EC
:100B8000D0E0DC2FCC27D069C82B02C0C0E0D0E079
:100B9000CE01DF91CF9108958238910569F1B0F4CB
:100BA0008133910509F46DC048F48932910509F447
:100BB00063C08A32910509F469C0089585339105AF
:100BC00009F455C089339105B9F00895833E910524
:100BD00069F138F4803E9105B1F0823E910509F14A
:100BE0000895863E9105A9F1873E9105B9F1843EAD
:100BF000910509F064C023C02091250320FD4FC05A
:100C000021FD4DC008958091250380FD44C0809151
:100C1000260380FF44C08091250384FD42C083EEFB
:100C20004DC08091250382FF38C0F5CF8091250308
:100C300082FD33C08091260380FD31C0ECCF8091CE
:100C4000260381FF32C08091250384FD2AC087EEF0
:100C500035C08091250383FF26C0F5CF8091250301
:100C600083FD21C08091260381FD1FC0ECCF8091C0
:100C7000250385FD1CC01DC08091250385FD19C07D
:100C800016C08091250386FD16C017C080912503EC
:100C900086FD13C010C089E311C082EE0FC080EE44
:100CA0000DC080E00BC086EE09C084EE07C089E26B
:100CB00005C085E303C08AE201C081E390E00895A6
:100CC0009091250392FF0DC0282F2871283019F428
:100CD000877F846006C0282F2471243011F48B7F15
:100CE000886093FF0DC0282F2871283119F4877E62
:100CF000846106C0282F2471243111F48B7E886111
:100D00002091260320FF0DC0382F3871383019F498
:100D1000877F816006C0382F3171313011F48E7FAA
:100D2000886021FF0DC0282F2871283119F4877E93
:100D3000816106C0282F2171213111F48E7E8861D6
:100D400094FD877E0895AF92BF92CF92DF92EF928B
:100D5000FF920F931F93CF93C0E0CC24C394D12C68
:100D6000E82EF12C8C2F0E943F085C0100E010E07F
:100D7000C601002E02C0880F991F0A94E2F78A214B
:100D80009B21892B31F40F5F1F4F0031110581F733
:100D90000AC0602F7C2F80E00E949704E816F906B5
:100DA00091F781E004C0CF5FC630E1F680E0CF91DB
:100DB0001F910F91FF90EF90DF90CF90BF90AF9079
:100DC0000895CF93C82F8CE20E94A306882321F0B8
:100DD0008C2FCF910C94A30680E0CF910895CF93F0
:100DE000C5E6C15049F00E9499088FE39CE901973C
:100DF000F1F700C00000F5CF89E20E94E106811101
:100E000018C18AE20E94E10681110E94AD2485E0AA
:100E10000E94E10681110E94512687E00E94E106AE
:100E20008823A9F18BE10E94E106882351F080918B
:100E3000010381FB222720F991E0922790FB81F9A1
:100E40000EC08EE00E94E106882361F080910103CC
:100E500082FB222720F991E0922790FB82F9809370
:100E6000010315C080E10E94E106909101038823EF
:100E700041F093FB222720F981E0822780FB93F940
:100E800004C0892F809580FB90F990930103809195
:100E900001030E940A2480EE0E94E106882341F0AB
:100EA00080912503982F909590FB80F980932503DE
:100EB00089E30E94E106882359F08091250381FB94
:100EC000222720F991E0922790FB81F98093250356
:100ED00082EE0E94E106882359F08091250382FB6F
:100EE000222720F991E0922790FB82F98093250335
:100EF00086EE0E94E106882359F08091250383FB4A
:100F0000222720F991E0922790FB83F98093250313
:100F100083EE0E94E106882359F08091250384FB2B
:100F2000222720F991E0922790FB84F980932503F2
:100F300085E30E94E106882359F08091250385FB13
:100F4000222720F991E0922790FB85F980932503D1
:100F500081E30E94E106882359F08091250386FBF6
:100F6000222720F991E0922790FB86F980932503B0
:100F700081E10E94E106882359F08091250387FBD7
:100F8000222720F991E0922790FB87F9809325038F
:100F900080912503909126030E94292487E20E94D4
:100FA000E106811125C08EE10E94E106811122C077
:100FB0008FE10E94E10681111FC080E20E94E106DC
:100FC00081111CC081E20E94E106811119C082E2F8
:100FD0000E94E106811116C083E20E94E1068111A0
:100FE00013C084E20E94E106882381F080E80FC0EC
:100FF00081E00DC082E00BC084E009C088E007C03A
:1010000080E105C080E203C080E401C080E00E946E
:1010100013248FE00E94E106882311F081E006C0CE
:1010200085E10E94E106882321F080E0CF910C94B5
:10103000AF24CF9108950E94FB23811102C00E942A
:10104000AD240E940624809301030E9418249093EB
:101050002603809325030E94EF060E940F24682F29
:1010600070E080E090E00E9443216091D402709192
:10107000D5028091D6029091D7020C947B21E82F63
:10108000F0E0EE0FFF1FED5CFC4F80819181089531
:10109000089580EA8A95F1F7089500C008950C94A8
:1010A000490808950C9451080C9452080C94510866
:1010B0000C945608F894E82FE295EF70F0E031A117
:1010C000282F2F7081E090E001C0880F2A95EAF761
:1010D000982F9095932391A392A1892B82A3789422
:1010E0000895CF93DF93CDE6D1E089910E945A080D
:1010F00081E0C337D807C9F7CDE5D1E089910E94D7
:101100005A0881E0CD36D807C9F7E7E2F3E0A3E358
:10111000B3E083E393E0119211921D921D928E171A
:101120009F07C9F786E00E942709DF91CF910C94B1
:10113000FB037F928F929F92AF92BF92CF92DF92EA
:10114000EF92FF920F931F93CF93DF93CDE6D1E001
:1011500087E2A82E83E0B82E93E3E92E93E0F92EE0
:10116000712C01E010E06E018881F894E82FE2957F
:10117000EF70F0E021A18F70A80102C0440F551F4D
:101180008A95E2F7CA01922F982B91A392A180959C
:10119000892382A378940E944D08EDE5F1E020E0D8
:1011A00030E0812C912C4191A42FA295AF70B0E03A
:1011B00090968C9190E04F7002C0959587954A95D6
:1011C000E2F780FD08C0C801022E02C0880F991FF7
:1011D0000A94E2F702C080E090E0882A992A2F5F03
:1011E0003F4F20313105F9F62196F60180810E94AA
:1011F0005A080E944F08F50180819181881699064E
:1012000021F09182808281E001C080E0782AF2E0C2
:10121000AF0EB11CEA14FB0409F0A5CF272D46E060
:1012200063E373E087E293E00E9428090E940304CD
:10123000872DDF91CF911F910F91FF90EF90DF905D
:10124000CF90BF90AF909F908F907F90089508951A
:10125000FF920F931F93CF93DF93F82E092F162F32
:10126000D72FC42F222349F081E08093D4010E941C
:1012700004269093D3018093D2018091D4018823D6
:10128000D9F08091D2019091D3010E941C2606973B
:1012900098F0EF2DF02FA12FBD2F80E090E04C2F84
:1012A00050E08417950734F4219131912D933D93AB
:1012B0000196F7CF1092D401DF91CF911F910F913A
:1012C000FF9008958091DB0180FF0BC060910901C0
:1012D00085E0689FB00111247595679575956795B0
:1012E0002BC081FF09C06091090185E0689FB001B2
:1012F00011247595679520C082FF07C06091090190
:1013000085E0689FB001112417C09091DA019923FC
:10131000D1F060910801961788F72091090185E0C6
:10132000289F90011124929FA001939F500D11249A
:1013300070E0CA010E947B2D6038710540F4611590
:10134000710519F406C065E070E0862F08958FE7F7
:10135000089581E008958091DB0180FF08C06091CD
:10136000050170E0759567957595679521C081FFBA
:1013700006C06091050170E07595679519C082FF00
:1013800004C06091050170E010C09091D9019923CB
:1013900099F0609104019617A0F780910501899F4B
:1013A000C001112470E00E947B2D6038710540F46B
:1013B0006115710519F406C061E070E0862F08958B
:1013C0008FE7089581E008958D3E21F40E9462091F
:1013D000819504C08E3E29F40E9462098093DF014A
:1013E00008958F3E21F40E946209819504C0803FD8
:1013F00029F40E9462098093DE010895893F19F45F
:101400000E94AB0905C08A3F31F40E94AB09819567
:101410008093E00108958B3F21F40E94AB098195F0
:1014200004C08C3F29F40E94AB098093E101089528
:101430009FE0980F983078F421E030E0A90102C0D5
:10144000440F551F9A95E2F7CA019091DD01892B4F
:101450008093DD0108958D3F21F48091DB0181604F
:101460000BC08E3F21F48091DB01826005C08F3F6D
:1014700029F48091DB0184608093DB0108958D3E27
:1014800039F49091DF0197FF35C01092DF0159C008
:101490008E3E29F49091DF011916BCF32BC0909178
:1014A000DE018F3E29F497FF25C01092DE0149C06E
:1014B000803F19F41916CCF31DC09091E001893FCB
:1014C00029F41916BCF41092E0013BC08A3F19F4CC
:1014D00097FF10C0F8CF8B3F39F49091E10197FF4F
:1014E00009C01092E1012DC08C3F21F49091E101DF
:1014F0001916BCF39FE0980F983080F421E030E09B
:10150000A90102C0440F551F9A95E2F7CA018095C0
:101510009091DD0189238093DD0113C08D3F21F47B
:101520008091DB018E7F0BC08E3F21F48091DB0127
:101530008D7F05C08F3F29F48091DB018B7F8093E5
:10154000DB018091DE01811106C08091DF018111F4
:1015500002C01092DA018091E001811106C08091F1
:10156000E101811102C01092D90108950E94042660
:101570002091DE01211104C02091DF01222321F0FE
:101580009093D8018093D7012091E001211104C0EC
:101590002091E101222321F09093D6018093D5017F
:1015A0008CED91E00C941D18EF92FF920F931F9316
:1015B000CF93DF9300D000D000D0CDB7DEB786E068
:1015C000ECEDF1E0DE01119601900D928A95E1F7C4
:1015D000E090DE01F090DF010091E0011091E10167
:1015E0001092DE011092DF011092E0011092E101F1
:1015F000E11003C0FF2009F45DC08091D7019091F4
:10160000D8010E941C26AC019091DA01992339F08F
:1016100020910A0130E02417350758F04BC0209183
:101620000B018AE0289F900111242417350718F038
:1016300041C09F3F19F09F5F9093DA01EE2061F067
:101640000E9462091E1414F09FEF01C091E0989F60
:10165000902D11249093DE01FF2061F00E94620919
:101660001F1414F09FEF01C091E0989F902D11245A
:101670009093DF013091DE013323E1F02091DF010F
:101680002223C1F045EB3403C0011124992319F042
:101690009093DE0103C081E08093DE0135EB2303EC
:1016A000C0011124992319F09093DF0103C081E058
:1016B0008093DF01011103C0112309F45DC0809103
:1016C000D5019091D6010E941C26AC019091D901C0
:1016D000992339F02091060130E02417350758F09E
:1016E0004BC0209107018AE0289F90011124241704
:1016F000350718F041C09F3F19F09F5F9093D901C3
:10170000002361F00E94AB09101614F09FEF01C096
:1017100091E0989F902D11249093E001112361F0A6
:101720000E94AB09111614F09FEF01C091E0989F41
:10173000902D11249093E1013091E0013323E1F0E9
:101740002091E1012223C1F045EB3403C0011124B3
:10175000992319F09093E00103C081E08093E001A8
:1017600035EB2303C0011124992319F09093E10173
:1017700003C081E08093E1018091DE0181110BC003
:101780008091DF01811107C08091E001811103C0C8
:101790008091E10181110E94B60AEB82FC820D83E7
:1017A0001E8386E0FE013196ACEDB1E001900D9212
:1017B0008A95E1F726960FB6F894DEBF0FBECDBF2F
:1017C000DF91CF911F910F91FF90EF900895ECED75
:1017D000F1E086E0DF011D928A95E9F71092DA01C7
:1017E0001092D9011092DB010895EF92FF920F93AE
:1017F0001F93CF93DF938B01682F11110AC04423ED
:1018000029F0E82FF0E0EA5AFB4F6491762F862FFB
:1018100075C0212F30E0E82FF0E0442321F0EA5A90
:10182000FB4FE491F0E046E0049FC0011124CFEFAC
:10183000D0E0BE010E94672D4BEA4603C001479FDE
:10184000900D1124800F911D800F911D982F990FDD
:10185000890FAE01421B530B4E9FD0014F9FB00D1D
:101860005E9FB00D11249B2F189FA0011124452FBE
:1018700055278E01041B150B0E9FA0010F9F500DC5
:101880001E9F500D11247E01E81AF108E29E80018E
:10189000E39E100DF29E100D1124212F3327C21B41
:1018A000D30BCE9F9001CF9F300DDE9F300D1124C2
:1018B00062307105A9F048F46115710569F0613075
:1018C0007105C9F48B2F752F0DC06430710581F03F
:1018D00058F06630710579F47E2F8B2F932F0DC051
:1018E000832F7B2F9E2F09C08E2F7B2F952F05C016
:1018F0008E2F732F02C07E2F852F692FDF91CF91FE
:101900001F910F91FF90EF90089541E00E94F50B19
:10191000089508950E94850C0895CF93DF93762F44
:10192000E901682F842F0E948A0C798368838A8357
:10193000DF91CF91089580913F03282F269530E0C5
:101940002115310519F48170826005C02B323105F3
:1019500024F08170846580933F03089588E090E0CF
:101960000C94592ECF92DF92EF92FF926B017C0183
:101970000E949B0CB701A60188E090E0FF90EF90D9
:10198000DF90CF900C94772EEFE3F3E083E0808339
:1019900011828FEF828383831482608171818281BF
:1019A00093810C94B20C80913F0380FF02C0869516
:1019B000089580E0089590914303933018F49F5F59
:1019C00090934303882351F060913F03709140034B
:1019D00080914103909142030C94B20C089581E0F0
:1019E0000C94DB0C90914303992319F09150909340
:1019F0004303882351F060913F037091400380912D
:101A00004103909142030C94B20C089581E00C9430
:101A1000F20C70E00C94A6156091100180913F03C8
:101A200080FF0AC080910F0123E0829FC001112432
:101A30008C5B9C4F0C94090D8091110190911201C7
:101A4000891780F7E82FF0E09F01220F331FE20F84
:101A5000F31FEC5BFC4F1182108212828F5FF0CF7C
:101A600090913F0390FF16C09091110120911201B7
:101A7000921770F4E92FF0E0DF01AA0FBB1FEA0F05
:101A8000FB1FEC5BFC4F8183608342839F5FF0CF41
:101A90000C940C0D0895CF93DF9300D01F92CDB717
:101AA000DEB790913F0390FF0AC09E012F5F3F4F2A
:101AB0000E948D0C4B8169818A810E94300D0F90AC
:101AC0000F900F90DF91CF910895CF93DF93EC01AA
:101AD000EC81F0E0EF5AFC4F4491EFE3F3E06281D8
:101AE00081810E944B0D8C818F5F8C83DF91CF9120
:101AF0000895CF93DF93EC01EFE3F3E0438162813C
:101B00008C810E944B0D8C818F5F8C83DF91CF91F4
:101B100008950F931F93CF93DF9300D01F92CDB7FB
:101B2000DEB78C018091E20181110AC09E012F5F16
:101B30003F4F4FEF6FEF0E948D0C8A818093E2013F
:101B4000F8018481813051F028F0823061F44091B5
:101B5000E2010AC08091E20140E007C06091E20129
:101B600040E080E003C040E080E060E00E94300D93
:101B7000F801848190E0019663E070E00E947B2D83
:101B800084830F900F900F90DF91CF911F910F9151
:101B90000895AF92BF92CF92DF92EF92FF920F9390
:101BA0001F93CF93DF9300D01F92CDB7DEB7182FCE
:101BB000F62E042FE22E90913F0390FF6DC0E92F87
:101BC000E695AE2FB0E0AD58BE4F8C9180933E02AB
:101BD0009E7F923061F49E012F5F3F4F812F0E94C4
:101BE0008D0C4B8169818A810E94300D43C0823007
:101BF00019F4009142033EC0863019F4109140035D
:101C000039C08930D9F38931A9F5E9518E2F817016
:101C1000D82EE695F0E0EF5AFB4FA590B490C12C7A
:101C2000BB2460911301C61618F52C2D30E0A29E3E
:101C3000C001A39E900DB29E900D112470E00E94F1
:101C4000672D812FD11002C0860F01C0861B909195
:101C50001101290F311DA901440F551F240F351FF4
:101C60002C5B3C4F402F6F2D0E948D0CC394D9CF1D
:101C70000E940C0D10934003F09241030093420325
:101C8000EE2051F060913F03709140038091410339
:101C9000909142030E94B20C0F900F900F90DF9131
:101CA000CF911F910F91FF90EF90DF90CF90BF9059
:101CB000AF900895EFE3F3E09181282F4381628193
:101CC00088E0890F0C94C90D81E00C945A0EEFE363
:101CD000F3E09181282F4381628188EF890F0C9472
:101CE000C90D81E00C94670EEFE3F3E0628128E018
:101CF000620F08F46FEF282F438181810C94C90D86
:101D000081E00C94740EEFE3F3E0628128E0621B43
:101D100008F460E0282F438181810C94C90D81E093
:101D20000C94830EEFE3F3E0438128E0420F08F4C4
:101D30004FEF282F628181810C94C90D81E00C94B2
:101D4000920EEFE3F3E0438128E0421B08F440E009
:101D5000282F628181810C94C90D81E00C94A10E21
:101D600020E00C94C90DFF920F931F93CF93DF9344
:101D7000EC01F12C0FEF10E060911301F616F0F476
:101D8000809111012F2D30E0280F311DC901880FDE
:101D9000991F280F391F2C5B3C4F70E0C8010E942F
:101DA0007B2D962F8C814091420360914103F99ED7
:101DB000800D11240E948D0CF394DECF0E940C0D37
:101DC0009A818C8190FF02C08F5F01C081508C830B
:101DD000DF91CF911F910F91FF900895BF92CF9205
:101DE000DF92EF92FF920F931F93CF93DF93FC014B
:101DF000828180FF02C00FEF01C001E010E08091FE
:101E00001301181708F040C080911101C12ED12C88
:101E1000E601C80FD11DCE01880F991FC80FD91F29
:101E2000CC5BDC4F198218821A8234E0E32EF12C4D
:101E3000B12C8091E4018B0D813114F08F7005C0BD
:101E400087FF03C090911301890F082E000C990B96
:101E5000C816D90691F4809142038E9DA0018F9DF2
:101E6000500D112455954795559547959E016091C4
:101E70004103809140030E948D0CB00EF1E0EF1AF7
:101E8000F108B9F61F5FBBCF0E940C0D8091E401F1
:101E9000013031F4811102C080911301815007C0DB
:101EA00090E001966091130170E00E947B2D809379
:101EB000E401DF91CF911F910F91FF90EF90DF90A0
:101EC000CF90BF900895CF9380911101909112010E
:101ED000891770F4E82FF0E09F01220F331FE20F03
:101EE000F31FEC5BFC4F1182108212828F5FF0CFE8
:101EF000C0E060911301C617C0F5EC2FF0E070E070
:101F0000CF010E947B2D20911101820F2091E301CE
:101F1000022E000C330B90E0E217F307CCF0209177
:101F20000E01022E000C330B2E173F078CF09C0184
:101F3000220F331F820F931F9C012C5B3C4F40915B
:101F4000420360914103809140030E948D0C0BC0BD
:101F5000FC01EE0FFF1F8E0F9F1FFC01EC5BFC4F7F
:101F6000118210821282CF5FC4CF0E940C0D20918B
:101F70000D018091E301820F8093E30190910E01A6
:101F8000920F90930E0119165CF4082E000C990B19
:101F90004091130150E041505109841795071CF0FE
:101FA000219520930D01CF9108958F929F92AF922A
:101FB000BF92CF92DF92EF92FF920F931F93CF9336
:101FC000DF938C01FC014481C42FD0E09E01DE012F
:101FD0000E94BF2D9B01AC010E94D52D6B017C019D
:101FE000E0E2F0E0EC1BFD0BA5E5B0E09B01AC01ED
:101FF0000E94D52D4B015C019F01DF010E94B72D8E
:102000009B01AC010E94E02D9B01AC012C0D3D1DFC
:102010004E1D5F1DC501B4010E948F2DC22FD22F0E
:102020002A3228F4F3E02F9F900111240DC025E5FA
:1020300030E02C1B3109C901880F991F280F391F67
:1020400037FF02C02F5F3F4F35952795C22FC095B0
:10205000F12C85E5E82EED1A80911301F816C8F4ED
:10206000F1FC02C08E2D01C08D2F909111012F2DFA
:1020700030E0290F311DA901440F551F240F351FD2
:102080002C5B3C4F4C2F609141030E948D0CF394CC
:10209000E3CF0E940C0DF8018481811102C091E010
:1020A00003C0803219F49FEF90930C0190910C01C2
:1020B000890FF8018483DF91CF911F910F91FF90D9
:1020C000EF90DF90CF90BF90AF909F908F9008954A
:1020D0000F931F93CF93DF93EC0100E010E080910A
:1020E0001301282F30E00217130724F590911101F6
:1020F0009801290F311DA901440F551F240F351FC9
:102100002C5B3C4F869590E04C81081719071CF416
:10211000442331F002C0411103C04091420301C089
:1021200040E060914103809140030E948D0C0F5F5D
:102130001F4FD5CF0E940C0D8C8190E001968170CD
:1021400099278C83DF91CF911F910F9108957F92F2
:102150008F929F92AF92BF92CF92DF92EF92FF92B7
:102160000F931F93CF93DF93FC018280748081E0F3
:102170008483E1E5F3E09490E0EDF3E0E491A12CB9
:10218000F5E0BF2ECC24CA94D12CE9190E2F10E013
:1021900080911301A81608F0A2C0EA2CF12C22E0CD
:1021A000281568F0BE9CF001BF9CF00D1124EB5186
:1021B000FE4F8091400380838091410381837110A1
:1021C0000AC0BE9CF001BF9CF00D1124EB51FE4FE4
:1021D000138212826AC0BE9CE001BF9CD00D112404
:1021E000CB51DE4F8B818823F9F081508B832FEF09
:1021F000829FC00111246C8170E00E94672DFB0159
:10220000FF27EF5AFC4F8491E82FE9192FEFE29F47
:10221000C0011124B8010E94672D80914203689F7C
:10222000B00111247A8341C00E94342E20914203D0
:102230002695215830E0A901440F551F322F22273F
:10224000240F351F232F33278217930774F582E05D
:10225000881588F40E94342EB6010E947B2D888355
:102260000E94342E209141032695622F70E00E9437
:102270007B2D280F2983BE9CF001BF9CF00D1124FB
:10228000EB51FE4F128280914203843120F0893C51
:1022900018F088EC01C084E1BE9CF001BF9CF00DF9
:1022A0001124EB51FE4F84838383809111019701A8
:1022B000280F311DC901880F991F280F391F2C5B6A
:1022C0003C4FBE9CF001BF9CF00D1124EB51FE4F22
:1022D0004281618180810E948D0CA39459CFDF914E
:1022E000CF911F910F91FF90EF90DF90CF90BF9013
:1022F000AF909F908F907F900C940C0DEFE3F3E0E4
:1023000080818E7F808360817181828193810E9430
:10231000B20C10923F022FEF80E792E021508040F4
:102320009040E1F700C000000C940C0DEFE3F3E0E7
:1023300080818E7F808310923F022FEF80E792E0B2
:10234000215080409040E1F700C000000C940C0D3B
:1023500010923F0280913C0281110AC081E080937B
:102360003C0280913F03817080933B020C94961154
:10237000089560913F03669570E04BE050E084E182
:1023800091E00E94442E892B19F481E080933F0252
:102390000E9404269093360280933502089590910E
:1023A0003F0390FF35C09170811102C0926006C05A
:1023B0008B3210F0946502C0880F982B90933F03E6
:1023C000662351F060913F03709140038091410377
:1023D000909142030E94B20C60913F03669570E0B9
:1023E0004BE050E084E191E00E94442E892B19F0EB
:1023F00010923F0202C00E94B91181E0809338021E
:102400004091420360914103809140030C94B00ECF
:102410000895682F90913F03969581E0890F8B3244
:1024200008F081E00C94CF1181E00C940912682F20
:1024300090913F0396958FEF890F09F48AE20C94EF
:10244000CF1181E00C94171261E00C94CF11EFE3EF
:10245000F3E080818160808386950C9424128091C2
:102460003F0380FD0C947E110C94271260E00C94C5
:10247000CF1180913D0281112EC00E94FB2381115A
:1024800004C00E94AD240E94C40C0E94AE0C609354
:102490003F037093400380934103909342036E7F08
:1024A00061F40E94C40C0E94AE0C60933F037093D1
:1024B000400380934103909342030E949B0C10922F
:1024C0003F0280913F0380FF03C086950E94361231
:1024D00081E080933D020895EFE3F3E08081816025
:1024E000808386950C94361210923C0280913B02B8
:1024F00081110E946C120C94B9110F931F93CF930A
:10250000DF9380913F02882309F495C080913E02B9
:10251000E0913F03E695E81BE0933702823049F4EF
:10252000F0E0E35BFC4FE491CE2FD0E005E61DE048
:1025300059C0863049F4F0E0E65BFC4FE491CE2FC1
:10254000D0E009E71DE04EC0893051F4E695F0E097
:10255000E95BFC4FE491CE2FD0E003EB1EE042C0DC
:102560008F3051F4E695F0E0EC5BFC4FE491CE2F18
:10257000D0E00EEE1EE036C0853149F4F0E0EF5BAE
:10258000FC4FE491CE2FD0E003E61FE02BC0883152
:10259000D9F0833239F4EFE3F3E0C591D49109E83F
:1025A0001DE020C08432A9F08532C1F48E2F63E093
:1025B0000E945B2DE92FF0E0E45CFC4FE491CE2F0C
:1025C000D0E007EA10E10EC0C8E2D0E005ED1FE060
:1025D00009C0C4EFD1E008E610E104C0C0EDD7E0C7
:1025E00009E81CE080913802882361F010923802DB
:1025F0000E940426909336028093350210923A028C
:10260000109239020E940426E0913502F0913602C0
:102610008E1B9F0B8F3F9F4770F4EC0FFD1FF093B5
:102620003602E093350285E392E0F801DF91CF9125
:102630001F910F910994DF91CF911F910F910895F0
:10264000882311F0FA0101C0FB010994CF93DF93B5
:10265000C82FD62F0E94D30C8C1740F00E94D30CA9
:102660008D1720F4DF91CF910C9414128C2FDF91F1
:10267000CF910C9424121F93CF93DF93FB0112810F
:10268000112309F4C1C0EC010E943A238272CD3CAF
:10269000FCE5DF0709F49BC008F043C0C73CECE54C
:1026A000DE0709F480C0D8F4C43C9CE5D90709F4DE
:1026B0006DC038F4C33CDC4509F0A7C00E942F125E
:1026C0006BC0C53C9CE5D90709F468C0C63CDC4535
:1026D00009F09BC041E75EE064E67EE05BC0CA3C77
:1026E000FCE5DF0709F469C070F4C83CECE5DE07DF
:1026F00009F45EC0C93CDC4509F087C040E85EE0F3
:102700006FE87EE047C0CB3C9CE5D90709F45AC08E
:10271000CC3CDC4509F079C046E05DE06FEE7CE042
:1027200039C0C23DFCE5DF0709F45EC098F4CF3C38
:102730009CE5D90709F452C008F44EC0C03DFCE541
:10274000DF0709F44EC0C13DDC4509F05EC06EE014
:1027500089E057C0C53D9CE5D90709F44BC058F442
:10276000C33DFCE5DF0709F442C0C43DDC4509F088
:102770004CC088E143C0C63D9CE5D907F1F1CE3598
:10278000DD4509F042C06AE285E23BC041E252E128
:1027900064E172E10E94201310E037C044E152E18D
:1027A00061E272E1F7CF44E65EE061E77EE0F2CFFE
:1027B0004FE85EE060E87EE0EDCF4DEA5EE06EE976
:1027C0007EE0E8CF4EE95EE06DEA7EE0E3CF4FEEDB
:1027D0005CE066E07DE0DECF81E010C065E082E095
:1027E00010C068E086E00DC064E18FE00AC067E1D8
:1027F00085E107C062E289E104C083E20E942412FD
:10280000CBCF0E942613C8CF11E0812FDF91CF914B
:102810001F91089586E090E00C94512E682F86E079
:1028200090E00C94652E809174038470896280938B
:1028300074030C940E140E94FB23811104C00E94A7
:10284000AD240E9413140E940A1480937403282F4D
:1028500026952695269530E02630310524F08770A0
:102860008862809374038091740380FF04C086950E
:102870008695869501C080E00C942C1520917403F8
:10288000822F869586958695482F50E045305105D4
:1028900054F48F5F982F990F990F990F822F87709B
:1028A000892B8093740380917403816080937403F7
:1028B0000E940E14809174038695869586950C94DB
:1028C0002C1580917403982F969596959695A1F066
:1028D000915E990F990F990F8770892B80937403DC
:1028E000887F91E009F490E08091740390FB80F977
:1028F000809374030E940E148091740386958695CC
:1029000086950C942C158091740380FD13C0816012
:1029100080937403813019F489E08093740380916B
:1029200074030E940E148091740386958695869593
:102930000C942C1508958091740380FF08C08E7F3D
:10294000809374030E940E1480E00C942C1508955B
:102950008091740380FD0C949B140C9483149091CB
:102960007403892F8695869586958F5F8F719770F2
:10297000863038F4880F880F880F892B8093740372
:1029800002C09093740380917403887F91E009F4EE
:1029900090E08091740390FB80F9809374030E940F
:1029A0000E14809174038695869586950C942C154B
:1029B000863008F085E0909174039770282F220FDD
:1029C000220F220F922B90937403987F21E009F439
:1029D00020E09091740320FB90F9909374030C9481
:1029E0002C150E94D814809174030C940E149C0131
:1029F000FB018281882349F12E3BFCE53F07C9F0AA
:102A000040F42C3BECE53E0769F02D3B3C4561F082
:102A10000895203C9CE5390791F070F0213C3C453D
:102A200089F0089585E001C080E00E94F11480E003
:102A300008950E946114FBCF0E943E14F8CF0E94BB
:102A4000A814F5CF0E94AF14F2CF81E00895269A22
:102A50002E9808952E980895CF92DF92EF92FF92CC
:102A6000CF93C82F863050F4811109C08091800027
:102A70008F7D809380000E942A1506C0C5E080915A
:102A800080008062809380002C2F30E0AFEFBFEF9A
:102A90000E94BF2D25E030E040E050E00E948F2DE5
:102AA000B42FA32F922F8827492F5A2F6B2F7727C8
:102AB000CA014C3724E1520728F469E070E00E9413
:102AC000672D29C0DB01CA018A50974DAF4FBF4F18
:102AD0006627782F892F9A2F25EF38E241E050E0C2
:102AE0000E948F2D69017A01CA01B9010E944B2D04
:102AF0009B01AC01C701B6010E944B2DBB27A92F3A
:102B0000982F872F009721E0A207B10511F0BC0193
:102B100002C06FEF7FEF70938B0060938A00CF91BC
:102B2000FF90EF90DF90CF90089508950E942715B1
:102B300082E28093800089E1809381008FEF9FEF94
:102B400090938700809386000C941B146A9A2EB190
:102B50002B7F3EB134604FB7F894FC01CB01880F56
:102B6000991F680F791F6E0F7F1FE617F70789F00F
:102B7000819198E03EB9000000C087FF2EB9880F10
:102B8000000000C000C000C02EB900C09A9591F7A7
:102B9000ECCF4FBF8FE594E00197F1F700C0000044
:102BA00008950F931F93CF93DF93C42FD22FFC016F
:102BB00082818823C9F0409342020E9404269093A8
:102BC00041028093400280E28C0F883008F057C0A9
:102BD000C77081E001C0880FCA95EAF7DF91CF91F5
:102BE0001F910F910C94C01A80914202481330C07B
:102BF00080914002909141020E941C26883C9105E0
:102C000038F510E21D0FCD17B9F080E28C0F883037
:102C100040F4C77081E001C0880FCA95EAF70E94AE
:102C2000C71A183028F581E09D2F977001C0880FD2
:102C30009A95EAF70E94C01A802F0E94B71A18309E
:102C4000F0F4D77081E001C0880FDA95EAF70AC086
:102C500080E28C0F883098F4C77081E001C0880F43
:102C6000CA95EAF7DF91CF911F910F910C94C71A83
:102C7000802FDF91CF911F910F910C94B71ADF91A4
:102C8000CF911F910F9108950F939C01CB01243F89
:102C90004CE5340731F188F4293DFCE53F07D9F0D4
:102CA0002A3D4CE5340779F1283D3C45A9F506E27B
:102CB00021EE41EE68ED7CE52BC0263FFCE53F07A9
:102CC000E1F0A8F0273F3C4539F507E225EE46EE56
:102CD00067EF7CE51DC007E225EE45EE69ED7CE57A
:102CE00017C006E221EE40EE64EF7CE511C007E27A
:102CF00025EE44EE65EF7CE50BC006E221EE42EEE8
:102D000066EF7CE505C008E221E045EE6AED7CE572
:102D10000E94D11580E008C0FC018281882319F04F
:102D20001092420201C081E00F910895CF93DF938A
:102D3000EC01FB018281882309F41FC1C230FCE54C
:102D4000DF0708F41BC1C6319CE5D90738F09E01A6
:102D50002B5F3C452930310508F010C10E94182432
:102D60009093260380932503C031ECE5DE0709F438
:102D7000C3C008F041C0C8308CE5D80709F49AC038
:102D8000F0F4C430ECE5DE0709F487C068F4C23023
:102D90008CE5D80709F477C0C330DC4509F0E3C0FF
:102DA00080912503826076C0C630ECE5DE0709F429
:102DB0006EC008F07BC08091250388606BC0CC306A
:102DC0008CE5D80709F485C068F4CA30ECE5DE0765
:102DD00009F474C008F079C00E944D1D809125034C
:102DE000806858C0CE308CE5D80709F476C008F06A
:102DF0007FC0809125038BC0CC3FECE5DE0709F452
:102E00004FC018F5C3318CE5D80709F47DC078F4BC
:102E1000C131ECE5DE0709F473C0C231DC4509F0CD
:102E2000A2C00E944D1D809125038F7733C0C5310C
:102E30008CE5D80709F472C008F486C0CB3FDC45A6
:102E400009F091C0809126033EC0C115FDE5DF0762
:102E500009F45FC058F4CE3F9CE5D90709F444C09B
:102E600008F43FC08091260382602DC0C230FDE58A
:102E7000DF0709F475C008F45DC0C330DD4509F013
:102E800072C080E06EC080912503816003C0809194
:102E9000250380618093250366C08091250311C0BE
:102EA000809126038260809326035DC08091250374
:102EB0008062F0CF809125038064ECCF8091250360
:102EC00088608460E7CF8160EECF809125038E7F9C
:102ED000E1CF809125038D7FDDCF80912503877F12
:102EE000D9CF8091260318C0809126038D7FDBCF38
:102EF000809125038F7ECECF809125038F7DCACF11
:102F0000809125038F7BC6CF80912503877F8B7FA0
:102F1000C1CF809126038D7F8E7FC5CF8091250301
:102F200082FB222720F991E0922790FB82F990FB07
:102F300083F9B0CF80912603982F909591708E7F62
:102F4000892B90FB81F9AFCF0E944D1D8091250305
:102F500087FB222720F991E0922790FB87F99ACFEF
:102F600081E00E94AF2480912503909126030E9466
:102F700029240E944D1D80E001C081E0DF91CF91A6
:102F80000895CF93DF9386319C4541F5EB010E9474
:102F90003A23982F8A8120911F01309120018823A4
:102FA00079F09A7A81E009F480E0809343029111EC
:102FB00002C069E201C065E3C9010E944A250AC056
:102FC00080914302811102C069E201C065E3C90139
:102FD0000E9455250E948C2380E001C081E0DF9192
:102FE000CF91089590934902809348020895E0910B
:102FF0004802F0914902309721F00190F081E02DD4
:10300000099480E00895E0914802F09149023097D8
:1030100099F020912B01222359F02091250327FFBD
:1030200007C0DC012C9111962C93119725E02C936D
:103030000280F381E02D09940895E0914802F09117
:103040004902309739F022E0DC012C930480F581AD
:10305000E02D0994089520914602309147022817E7
:10306000390771F09093470280934602E09148023D
:10307000F0914902309721F00680F781E02D099404
:10308000089520914402309145022817390771F0C4
:103090009093450280934402E0914802F0914902E6
:1030A000309721F00084F185E02D099408950E9465
:1030B000102660935B0270935C0280935D02909394
:1030C0005E02609357027093580280935902909366
:1030D0005A02089585B7806885BF85B7806885BF27
:1030E000089581E008950C94711808950C94751852
:1030F0000C9475180C9478180C9475180C947C1812
:103100000C9475180E946A1889EF93E20E94752644
:103110000E9480180C947E180E9476180C947518E2
:103120000E94FB250E9471080E941B140E94391204
:103130000C947A186F927F928F929F92AF92BF9267
:10314000CF92DF92EF92FF920F931F93CF93DF9373
:10315000CDB7DEB72A970FB6F894DEBF0FBECDBF4E
:103160000E94990881110E9457183BE4832E32E097
:10317000932E00E010E0C02E802F0E943F085C01DB
:10318000F401619071904F016826792661147104F1
:10319000B1F40F5F1F4F0630110569F78FEF898378
:1031A0008A831B820E9404268160782F9D838C83F2
:1031B00049815A816B818D810E9454193AC0809156
:1031C000010381FD0E944808D12CEE24E394F12CE8
:1031D000C3018E219F21892B29F10E947318882316
:1031E000A9F0DE82CF82AE20BF2081E0AB2809F4B7
:1031F00080E088870E9404268160782F9A878987DB
:103200004E815F8168858A850E945419000F111FC5
:10321000F801E55BFD4F80819181E826F926F18276
:10322000E08207C0D394EE0CFF1CF0E1DF12D0CF98
:10323000B0CF0E947D120E9495150E94D40A0E9470
:10324000F71790914A028917D1F00E94F7178093DF
:103250004A022A960FB6F894DEBF0FBECDBFDF91AB
:10326000CF911F910F91FF90EF90DF90CF90BF9083
:10327000AF909F908F907F906F900C948A042A96C5
:103280000FB6F894DEBF0FBECDBFDF91CF911F9177
:103290000F91FF90EF90DF90CF90BF90AF909F90F5
:1032A0008F907F906F900895DF92EF92FF920F932F
:1032B0001F93CF93DF93CDB7DEB72B970FB6F8945C
:1032C000DEBF0FBECDBFF42E052F162FE72ED82E52
:1032D00061110E945A23FE01319686E0DF011D92A2
:1032E0008A95E9F77E2D4F2D502F612F8D2D9E81D0
:1032F0000E9406202B960FB6F894DEBF0FBECDBFFE
:10330000DF91CF911F910F91FF90EF90DF90089583
:10331000FC01808191810E94DA220895CF93882355
:1033200009F4A4C0C82F8238C1F40E94F71781FDA8
:103330009DC069E380911F01909120010E944A2560
:103340000E948C232FEF81EE94E02150804090402A
:10335000E1F700C0000069E319C0833801F50E945D
:10336000F71780FD83C063E580911F0190912001D4
:103370000E944A250E948C232FEF81EE94E0215079
:1033800080409040E1F700C0000063E580911F019C
:10339000909120010E945525CF910C948C23843864
:1033A000C1F40E94F71782FD61C067E480911F019C
:1033B000909120010E944A250E948C232FEF81EEDC
:1033C00094E0215080409040E1F700C0000067E4A5
:1033D000DDCF8CEF8C0F813AD0F46C2F80911F01E0
:1033E000909120010E94CA24882349F06C2F80917B
:1033F0001F01909120010E9455250E948C236C2F63
:1034000080911F01909120010E944A25C5CF80E242
:103410008C0F883048F4C77081E001C0880FCA95CE
:10342000EAF70E943D23B8CFEBE5EC0FE33040F420
:10343000F0E0E453FE4F808190E0CF910C942B1884
:10344000E8E5EC0FE73150F4F0E0EE0FFF1FE25635
:10345000FE4F80819181CF910C944118CD3E30F088
:103460008C2F0E94E409CF910C94B60ACF91089555
:10347000882309F464C0823879F40E94F71781FF29
:103480005EC069E380911F01909120010E944A254E
:103490000E948C2369E310C08338B1F40E94F717AF
:1034A00080FF4DC063E580911F01909120010E9433
:1034B0004A250E948C2363E580911F019091200191
:1034C0000E9455250C948C23843879F40E94F717B8
:1034D00082FF35C067E480911F01909120010E9416
:1034E0004A250E948C2367E4E7CF9CEF980F913A1E
:1034F00010F4682FE1CF90E2980F983050F4877065
:1035000091E001C0990F8A95EAF7892F0E94432321
:10351000D9CF9BE5980F933020F480E090E00C9495
:103520002B1898E5980F973120F480E090E00C94E8
:1035300041188D3E20F00E943F0A0C94B60A08956F
:103540001F93CF93DF93182FEB010E948E192097C2
:1035500041F08FE99FE00197F1F700C0000021974B
:10356000F6CF812FDF91CF911F910C94381A8933B8
:1035700019F060E070E002C060E570E00C94A01A01
:10358000882321F00E943D230C948C2308958823E6
:1035900021F00E9443230C948C230895CF92DF9254
:1035A000EF92FF920F931F93CF93DF937C01062F2F
:1035B000C72FFC01D281158112951F700E94122322
:1035C000882399F0DD2389F08C2F807F803421F0CF
:1035D00080E2800F883048F082E00E94DC230E9465
:1035E000122391E0D82ED92601C0D12CCC2EC29422
:1035F0008FE0C8228C2D90E0FC01EA5AFF4F0C941A
:10360000B12D8C2F807FCF70882311F0C295C07FA1
:10361000DD2399F0CC2309F48DC180E2800F88303E
:1036200010F0011104C08C2F0E943D2303C08C2F89
:103630000E944D230E948C237DC1802F0E94381A46
:10364000CC2309F49CC180E2800F883010F0011176
:1036500004C08C2F0E94432303C08C2F0E9453234D
:103660000E948C238CC18C2F807FCF70803211F010
:10367000C295C07F002319F00130C9F022C0DD23BC
:1036800071F0112341F0113031F40E946D238C2B25
:103690000E94752374C10E946D238C2B1DC01123C1
:1036A00019F0113009F46BC10E94822325C0DD237B
:1036B00021F0163008F063C10EC0153008F05FC16C
:1036C0001BC0DD2361F0112331F0F701858180FFFC
:1036D00031C18F7085838C2F0E94C01A50C1112375
:1036E00059F0093309F037C1FFEF27EE83E0F150BD
:1036F00020408040E1F72DC18C2F0E94C71A3FC1A6
:103700008C2F86958695837019F0813061F037C1D2
:10371000DD2321F0802F9C2F937002C080E090E089
:103720000E942B1834C1DD2321F0802F9C2F937031
:1037300002C080E090E00E94411829C1802FDD2363
:1037400019F00E94E40902C00E943F0A0E94B60AD2
:103750001EC18C2F837009F045C0D11114C1402FB8
:10376000429546954770440F440F602F6F70862F27
:1037700090E0A0E0B0E0042E04C0880F991FAA1FBB
:10378000BB1F0A94D2F704FF10C00FE010E020E046
:1037900030E004C0000F111F221F331F4A95D2F7DB
:1037A000009510952095309503C000E010E0980139
:1037B000C695C695C370BC01CD01602B712B822BC1
:1037C000932BC23049F058F4C13019F00E945721B0
:1037D000DAC00E944521D7C00E946921D4C00E944E
:1037E0004321D1C0DD2319F08C2F817001C0869553
:1037F000882309F4C8C0402F429546954770440F6E
:10380000440F602F6F70862F90E0A0E0B0E0042E90
:1038100004C0880F991FAA1FBB1F0A94D2F704FF88
:1038200010C00FE010E020E030E004C0000F111FD6
:10383000221F331F4A95D2F7009510952095309599
:1038400003C000E010E09801C695C695C370BC01A6
:10385000CD01602B712B822B932BC23049F058F491
:10386000C13019F00E941C228EC00E940A228BC017
:103870000E942E2288C00E947D2185C0CF70DD234A
:1038800039F08C2F0E94A321802F0E94C01A7BC088
:10389000802F0E94C71A8C2F0E94C42174C0023F3F
:1038A00001F128F4003F41F0013FA1F03FC0033F88
:1038B000F9F0043F39F13AC0DD2341F0153008F04A
:1038C0005EC08C2F8F710E94E92159C0163008F01C
:1038D00056C0F7CFDD2339F08C2F8F710E94A321C2
:1038E0004EC0DD23C9F38C2F8F710E94C42147C0C5
:1038F000DD2329F08C2F8F710E948E2140C00E9401
:1039000089213DC0DD2349F0CF718C2F0E94A32176
:1039100063E08C2F0E94C12332C081E00E94DC232F
:10392000123068F182E00E94DC2329C0DD2331F0EF
:10393000112391F2802F0E948E1921C0112399F238
:10394000093349F49FEFE7EEF3E09150E040F04097
:10395000E1F700C00000802F0E94381A10C04C2FE1
:103960004F70602FC7010E9493040E94B4200FC0C3
:103970004C2F4F70602FC7010E94960408C088EF3B
:103980008C0D843020F40E94F7170E948A04DD20F9
:10399000C9F00E940E2380FD15C0F70112820E941B
:1039A00008230E94A321C7010E94031D0E9408232F
:1039B000DF91CF911F910F91FF90EF90DF90CF900B
:1039C0000C94C421DF91CF911F910F91FF90EF9044
:1039D000DF90CF9008950F931F93CF93DF93EC0167
:1039E000688179818A810E94E5228C010E944022AF
:1039F0000E943121B801CE010E94CE1ADF91CF91F1
:103A00001F910F910895CF93DF93EC0198818981E5
:103A10002B813C81232B31F08F3F31F481E09F3F9C
:103A200019F403C081E001C080E080FD19C0CE011F
:103A30000E94150481110CC00E941223882381F07A
:103A40008A81882369F082E0DF91CF910C94DC2396
:103A5000CE010E94EB1CCE01DF91CF910C94F003BC
:103A6000DF91CF91089580E090E00E942B1880E0D4
:103A700090E00E9441180E945A230E946A230E94EB
:103A80008C230E94E70B0C94B60A80911F01909141
:103A900020010E9460250C94331D0E944A230C943F
:103AA000451DE92FE295EF704E2F50E0FA01329755
:103AB000EE30F105B0F4EA59FF4F0C94B12D803F80
:103AC00091F018F4883E68F40EC0843F51F40BC0A6
:103AD000883E48F0813F29F406C093FB882780F98F
:103AE000089580E0089581E008950E94DA220E94FE
:103AF000511D0895CF93DF9300D000D01F92CDB712
:103B0000DEB70F900F900F900F900F90DF91CF9135
:103B10000895CF93DF9300D000D000D0CDB7DEB7AB
:103B200026960FB6F894DEBF0FBECDBFDF91CF91C2
:103B300008951F93CF93DF93C091600216E08091A8
:103B40006102C81799F0D0E01C9FF0011D9FF00D95
:103B50001124EE59FD4F408151816281738184812E
:103B600095810E94891D2196C770E9CFDF91CF9181
:103B70001F91089540919202509193026091940296
:103B80007091950280919602909197020C94891DF4
:103B90000F931F93CF93DF938091970282958F703D
:103BA00009F05DC080919402882309F458C0809187
:103BB0006002109161026091920270919302C09133
:103BC0009502D091960291E06F3F09F090E0292F85
:103BD00006E0811709F443C0209721F07F3F21F0D0
:103BE00030E003C031E001C0322F90E030FD34C03E
:103BF000089FF001099FF00D1124DF01AE59BD4F60
:103C000011963C911197371327C03C91361324C06D
:103C100012963C91129731111FC013964D915C91F1
:103C200014974C1B5D0B483C5105B0F480919702F2
:103C30008F70806180939702E959FD4F80818F706A
:103C40008061808382E992E00E94031DDF91CF9121
:103C50001F910F910C94991D01968770BACFDF9137
:103C6000CF911F910F9108959F92AF92BF92CF92E3
:103C7000DF92EF92FF920F931F93CF93DF93CDB715
:103C8000DEB761970FB6F894DEBF0FBECDBF8C01D3
:103C900085E0F801DE011D9601900D928A95E1F70D
:103CA000F80140815181E2809091920260919302EB
:103CB00020919502309196022115310531F06F3F28
:103CC00031F481E09F3F19F403C081E001C080E03E
:103CD000F82FF1709F2E80FD46C1F801A380B480BB
:103CE00082E9C82E82E0D82EF0909402F501E21B02
:103CF000F30BFF2009F4DFC080919702E83CF10547
:103D000008F09BC0282F207F09F052C0561313C023
:103D1000491311C0FE2CE1100EC08F70806180939A
:103D200097020E94BA1DC6010E94031D809197024E
:103D3000F801858358C1AB2831F05F3F31F481E051
:103D40004F3F19F403C081E001C080E080FD03C053
:103D500081E08E2502C080E090E0F82FF170FF2E08
:103D600080FF1CC0809160022091610236E08217C2
:103D700009F417C190E0389FF001399FF00D11242C
:103D8000EE59FD4F6181561306C06081461303C092
:103D90006281E61203C001968770E9CFFE2CEE2007
:103DA00009F421C1809197028160809397025AC0E3
:103DB000561306C0491304C0E11002C0F8019FC0A9
:103DC0004D875E878D859E850E94751D882379F1BC
:103DD000EE2069F120919702822F82958F7090E0FA
:103DE000029774F0809192029091930298878F834A
:103DF0001986BB86AA862C87CE0107960E94031DD2
:103E000086E0F801A2E9B2E001900D928A95E1F70F
:103E10000E94C81D0E94BA1D0DC0561729F14D877A
:103E20005E878D859E850E94751D81112CC0C801FD
:103E30000E94031DFF24F394D6C0282F207F69F72A
:103E40007A2DB98AA88A6E2D89890E947A1D82E905
:103E500092E00E94031D86E0F60111928A95E9F72F
:103E60000E94BA1DF12CBFC04913D9CFE110D7CFA2
:103E7000F8018583C8010E94031D86E0F6011192B6
:103E80008A95E9F7B0C0EE2091F220919702822F37
:103E900082958F7090E002970CF4B2CF80919202DD
:103EA000909193029A8389831B82BD82AC822E8378
:103EB000CE010196A3CFE83CF10508F047C0FE2CE7
:103EC000EE2009F4B4CF561330C049132EC0209110
:103ED000970220FD21C0822F82958F70482F50E0DD
:103EE00041155105C9F0F80125834F30510541F0C6
:103EF0008F5F982F9295907F822F8F70892B85836B
:103F0000C8010E94031D86E0F801A2E9B2E0019019
:103F10000D928A95E1F742C086E0F801A2E9B2E08D
:103F200001900D928A95E1F75EC04D875E878D8581
:103F30009E850E94751D811163CF809197028160DB
:103F400080939702C8010E94031D4DC07A2DB98A43
:103F5000A88A6E2D89890E947A1D86E0F601119249
:103F60008A95E9F71BC0EE2009F461CF4D875E8783
:103F70008D859E850E94751DF82E882309F457CFE4
:103F800086E0F801A2E9B2E001900D928A95E1F78E
:103F900082E992E00E9488190E94C81D0E94BA1D01
:103FA00022C04D875E878D859E850E94DA22292F4B
:103FB00022952F70223028F49F7039F0811105C0AE
:103FC0000BC0243028F49F7049F4805E883020F0C4
:103FD000C8010E94031D9F2CF92C05C0F801958192
:103FE000907F99F7F9CF8F2D61960FB6F894DEBFC9
:103FF0000FBECDBFDF91CF911F910F91FF90EF903A
:10400000DF90CF90BF90AF909F9008951F93CF9374
:10401000DF93CDB7DEB72C970FB6F894DEBF0FBE97
:10402000CDBF4F83588769877A878B879C87CE015E
:1040300007960E94341E8823D1F09F8188852A85A7
:104040003B85232B31F08F3F31F481E09F3F19F402
:1040500003C081E001C080E080FD47C04F815885EA
:1040600069857A858B859C850E94891D3EC086E086
:10407000FE013796DE01119601900D928A95E1F7C7
:10408000FF81E8856A857B856115710531F0EF3F19
:1040900031F481E0FF3F19F403C081E001C080E00A
:1040A00080FD23C02091610230E0C9010196877034
:1040B00099274091600250E084179507F1F1F98348
:1040C000EA837D836C8396E0929FD001939FB00D2D
:1040D0001124AE59BD4FFE01319601900D929A9573
:1040E000E1F7809361020E94991D16E080916002C1
:1040F00090916102891771F1189FC00111248E59A6
:104100009D4F0E94341E882329F1E09160021E9F7A
:10411000F0011124EE59FD4F40815181628173817C
:10412000848195810E94891D8091600290E00196B2
:104130008770992780936002D9CF0E944D1D1092FD
:10414000610210926002E2E9F2E086E0DF011D9276
:104150008A95E9F72C960FB6F894DEBF0FBECDBF57
:10416000DF91CF911F910895EF92FF920F931F93CC
:10417000CF93DF938C01892B09F46CC0F12CEE24D2
:10418000E394E8012196F8018491843740F4843067
:1041900008F051C0813081F0823019F15BC0853761
:1041A00009F444C0A8F19CE7980F903708F052C07A
:1041B0008F770E94381A41C00E5F1F4FFE01849115
:1041C00090E2980F983050F48770FE2D01C0FF0FD9
:1041D0008A95EAF78F2F0E945D2314C00E948E19E2
:1041E0002DC00E5F1F4FFE01849190E2980F983012
:1041F00060F48770FE2D01C0FF0F8A95EAF78F2FBC
:104200000E9463230E948C2319C00E94381A16C092
:104210000E5F1F4FFE01C491CC2381F08FE99FE018
:104220000197F1F700C00000C150F6CF0E5F1F4F9D
:10423000FE01F49003C00E948E198E018F2D8823F9
:1042400009F49FCFEFE9FFE03197F1F700C00000DC
:104250008150F5CFDF91CF911F910F91FF90EF909B
:104260000895089508950C9432210C9433210E94EE
:1042700035216093D8027093D9028093DA0290932B
:10428000DB020C94331D0C9437210F931F93009184
:10429000D8021091D9022091DA023091DB02602B12
:1042A000712B822B932B1F910F910C9437210F931D
:1042B0001F930091D8021091D9022091DA02309117
:1042C000DB0260237123822393231F910F910C94AF
:1042D00037210F931F930091D8021091D90220919A
:1042E000DA023091DB0260277127822793271F9122
:1042F0000F910C9437210C9432210E947B21609302
:10430000D4027093D5028093D6029093D7020C9476
:10431000331D60E070E0CB010C947D210F931F935F
:1043200041E050E060E070E08A019B0104C0000FB2
:10433000111F221F331F8A95D2F7C901B8011F919F
:104340000F910C947D210F931F9341E050E060E0AA
:1043500070E004C0440F551F661F771F8A95D2F77F
:104360008091D4029091D502A091D602B091D7024B
:104370008A019B01082B192B2A2B3B2BC901B80161
:104380001F910F910C947D210F931F9341E050E0FA
:1043900060E070E004C0440F551F661F771F8A95C8
:1043A000D2F740955095609570958091D402909188
:1043B000D502A091D602B091D7028A019B010823B1
:1043C00019232A233B23C901B8011F910F910C9493
:1043D0007D210F931F9341E050E060E070E004C046
:1043E000440F551F661F771F8A95D2F78091D4021C
:1043F0009091D502A091D602B091D7028A019B017B
:10440000082719272A273B27C901B8011F910F91B7
:104410000C947D210F931F930091D4021091D5022B
:104420002091D6023091D702602B712B822B932BD7
:104430001F910F910C947D210F931F930091D40233
:104440001091D5022091D6023091D70260237123BA
:10445000822393231F910F910C947D210F931F931F
:104460000091D4021091D5022091D6023091D7024A
:1044700060277127822793271F910F910C947D212C
:10448000089520E1929F800D1124E82FE695E6958E
:10449000E695877051E001C0550F8A95EAF785E0EF
:1044A000E89FF0011124E856FD4F20E030E070E075
:1044B0004081CB01022E02C0969587950A94E2F7BF
:1044C0008170819584278523842781932F5F3F4FB7
:1044D0002530310569F7089520E1929F800D112460
:1044E000682F669566956695982F977085E0689F0A
:1044F000B001112440E050E080E0FB01E40FF51F23
:10450000E856FD4F208130E0092E02C036952795F0
:104510000A94E2F721703327042E01C0220F0A9477
:10452000EAF7822B4F5F5F4F4530510531F7089511
:10453000BF92CF92DF92EF92FF920F931F93CF9390
:10454000DF938C01C090D402D090D502E090D602C7
:10455000F090D7028091D8029091D902A091DA020E
:10456000B091DB02C82AD92AEA2AFB2ACFE1D0E09F
:10457000D701C6010C2E04C0B695A79597958795CF
:104580000A94D2F780FD04C0219790F7B12C07C0A0
:10459000BC2EB8018C2F0E94B4040197A9F38B2D77
:1045A000DF91CF911F910F91FF90EF90DF90CF900F
:1045B000BF900895CF93DF93EC010E949822BE0133
:1045C0000E94B404DF91CF9108951F93CF93DF939E
:1045D000EB0190915F02992321F0CB010E94DA2236
:1045E00013C0882349F0CB010E949822182F682F0E
:1045F000CE010E94412204C0CB010E946C22182FE0
:10460000BE01812F0E94B404DF91CF911F910895C4
:104610008091DC0285958595859508958091DC02D1
:10462000877008959091DC02977081E009F480E032
:1046300008959091260392FB222720F9281751F024
:1046400080FB92F990932603809125039091260395
:104650000C94292408958091260382FB882780F9F1
:1046600091E089270C94192381E00C94192380E0B0
:104670000C94192380910003089590910003892BD5
:10468000809300030895809590910003892380937F
:10469000000308951092000308959091FF02892B62
:1046A0008093FF02089580959091FF028923809363
:1046B000FF0208951092FF0208959091FE02892B47
:1046C0008093FE02089580959091FE028923809345
:1046D000FE0208951092FE0208958091DD02089571
:1046E00008950C9470230C9471239091260392FDED
:1046F00008C09091DD02981721F08093DD020C94A0
:10470000732308958091DD02882329F01092DD0241
:1047100080E00C9473230895E0911F01F091200133
:10472000809100038083E0911F01F091200190812E
:104730008091FF02892B8083E0911F01F09120017D
:1047400090818091FE02892B80838091DD028823F5
:1047500081F0E0911F01F09120019081892B8083ED
:1047600080911F01909120010E94B42481110E9428
:10477000822380911F01909120010C9403180C94C6
:1047800070239091260392FD10C098E0899F9001BC
:104790001124262B2093DC020E94A3218091DC02AD
:1047A0008595859585950C94BF230C94A321109233
:1047B000DC0280E00C94BF232091DC0280958223F0
:1047C0008093DC02982F977041F430E0482F082E38
:1047D000000C550B2417350721F49091260392FF06
:1047E00007C08595859585950E94C4210C94D72393
:1047F000089580E0089580E090E00E945F2E21E01F
:104800008A3E9E4F09F020E0822F089582E090E0DA
:104810000C94512E682F82E090E00C94652E83E07A
:1048200090E00C94512E682F83E090E00C94652E5C
:10483000CF9384E090E00E94512EC82F82E290E056
:104840000E94512E2C2F30E0A901582BCA01CF9184
:104850000895CF93C92F682F84E090E00E94652EC1
:104860006C2F82E290E0CF910C94652EAB01BC01DD
:104870008FE090E00C94772EAB01BC0183E190E0D7
:104880000C94772E60E070E0CB010C943C2460E047
:1048900070E0CB010E9436240C9442246AEE7EEF35
:1048A00080E090E00E94832E60E082E090E00E9431
:1048B000652E60E083E090E00E94652E1092D802A1
:1048C0001092D9021092DA021092DB0260E084E0CA
:1048D00090E00E94652E60E082E290E00E94652EEA
:1048E00060E085E090E00E94652E60E086E090E068
:1048F0000E94652E6FEF87E090E00E94652E40E0F9
:1049000050E0BA0188E090E00E94772E60E08DE0F0
:1049100090E00E94652E40E050E0BA0188E190E00E
:104920000E94772E60E087E190E00E94652E40E0D3
:1049300050E0BA018CE190E00E94772E60E070E0D8
:1049400080E290E00E94832E40E050E0BA0188E1CE
:1049500090E00E94772E0C9447240C944E24682FEC
:104960008EE090E00C94652EFC01329680912B0134
:10497000882331F08091250387FF02C09EE101C0AA
:1049800096E080E0915028F021912223D9F38F5FA7
:10499000F9CF0895662351F120912B012223E9F0EC
:1049A0002091250327FF19C0462F46954695469529
:1049B0004E31E0F4677021E030E002C0220F331F77
:1049C0006A95E2F7FC01E40FF11D828190E0282353
:1049D000392381E0232B69F409C0FC013296089643
:1049E0002191621729F0E817F907D1F780E00895BF
:1049F00081E008959C01FC0132969FEF80E0419197
:104A0000461789F09F3F19F4411101C0982F8F5F1D
:104A10008630A9F79F3F39F0F901E90FF11D97FDA5
:104A2000FA956283089508959C012A5F3F4FFC0127
:104A30004281461301C01282019682179307B9F78B
:104A40000895262F2695269526952E3168F4FC018B
:104A5000E20FF11D677021E030E001C0220F6A957E
:104A6000EAF78281282B22830895262F2695269502
:104A700026952E3170F4FC01E20FF11D677021E0E4
:104A800030E001C0220F6A95EAF720958281282341
:104A90002283089520912B01222329F020912503C0
:104AA00027FD0C9421250C94FA2420912B0122231C
:104AB00029F02091250327FD0C9435250C9414250D
:104AC00020912B01FC013296222331F080912503A5
:104AD00087FF02C08EE101C086E0DF011D928A954A
:104AE000E9F7089508950C9472250C947225CF93DC
:104AF0000E9475250E9499080E947325C0E08C2FA2
:104B00000E943F08892B29F4CF5FC630C1F780E0AF
:104B100001C081E0CF9108950C9472250C948C25EE
:104B200080917D03843009F42EC00E948E2580E0A0
:104B30000E942C1580E00E948A040E94A811109205
:104B4000020320E488E190E00FB6F894A8958093E2
:104B500060000FBE2093600083B7817F846083BFB5
:104B600083B7816083BF7894889583B78E7F83BF36
:104B70000FB6F894A89580916000886180936000DA
:104B8000109260000FBE08950C9472250E944D1D76
:104B90000E941B140E94F7170E948A040E9474123C
:104BA0000C94C4251F920F920FB60F9211248F936D
:104BB0009F93AF93BF9380910203811113C08091A3
:104BC000750390917603A0917703B0917803419695
:104BD000A11DB11D8093750390937603A093770375
:104BE000B0937803BF91AF919F918F910F900FBEBB
:104BF0000F901F90189582E084BD93E095BD9AEFC9
:104C000097BD80936E0008952FB7F8948091750337
:104C100090917603A0917703B09178032FBF089508
:104C20002FB7F894609175037091760380917703A4
:104C3000909178032FBF08959C014FB7F89480910D
:104C4000750390917603A0917703B09178034FBFDD
:104C5000821B930B089578941F920F920FB60F92B8
:104C600011248F939F93AF93BF938091750390917D
:104C70007603A0917703B09178030196A11DB11D31
:104C80008093750390937603A0937703B093780392
:104C9000BF91AF919F918F910F900FBE0F901F907A
:104CA000189581E08093E00080E28093D800109214
:104CB000C9008FE19EE40197F1F700C0000087E092
:104CC00090EBDC018093860390938703A093880385
:104CD000B09389039CE088E10FB6F894A89580937F
:104CE00060000FBE90936000FFCF9093D10180933E
:104CF000D0010895809123030895CF93DF9300D0CE
:104D00001F92CDB7DEB790917D03943019F589835A
:104D10007B836A8382E08093E9008FEF9091E800C3
:104D2000815095FD06C095ED9A95F1F7000081112F
:104D3000F5CF8091E80085FF0DC040E050E063E0D2
:104D400070E0CE0101960E94AD288091E8008E7738
:104D50008093E8000F900F900F90DF91CF9108950E
:104D6000BC0184E00C947D26BC0183E00C947D267C
:104D700022E02093E9002FEF3091E800215035FD2B
:104D800006C035ED3A95F1F700002111F5CF2091DD
:104D9000E80025FF0BC040E050E066E070E00E94B4
:104DA000AD288091E8008E778093E8000895CF9336
:104DB000DF9320912B01222339F02091250327FF37
:104DC00003C060E222E002C068E021E02093E90035
:104DD0002FEF3091E800215035FD06C035ED3A95B2
:104DE000F1F700002111F5CF2091E80025FF1DC04B
:104DF000EC0180912B01811105C040E050E068E09A
:104E000070E003C070E040E050E0CE010E94AD28A9
:104E10008091E8008E778093E80080E2FE01A3E0B5
:104E2000B3E001900D928A95E1F7DF91CF9108955B
:104E300080917C03811109C00E943E2A0E949B2A16
:104E40008091E20084608093E200089510927C03D8
:104E5000089508950895089542E061EC81E00E946C
:104E6000B72942E261EC82E00C94B72980917F037C
:104E7000833009F460C030F4813071F0823009F47D
:104E800099C008958A3009F485C08B3009F46BC04D
:104E9000893009F0A7C020C080917E03813A09F0D3
:104EA000A1C08091E800877F8093E8008091820311
:104EB00090918303892B21F460E283E093E003C0A7
:104EC00060E080E090E070E00E94F8288091E800C7
:104ED0008B778093E800089580917E03813209F0FA
:104EE00081C08091820390918303029708F07AC079
:104EF0008091E800877F8093E8008091E80082FD40
:104F000005C080917D038111F8CF6CC02091F30022
:104F10008091F20090E0922B029729F48091F100A9
:104F20008B7F813021F48091F10080932303809165
:104F3000E8008B7753C080917E03813A09F052C01C
:104F40008091820390918303892B09F04BC080915B
:104F5000E800877F8093E8008091E80080FFFCCF25
:104F600080912B0136C080917E038132D9F58091EA
:104F7000820390918303892BA9F58091E800877FB4
:104F80008093E8000E94EC298091800380932B019C
:104F90000C944D1D80917E03813221F58091E800B3
:104FA000877F8093E8000E94EC29809181038093A1
:104FB0002403089580917E03813AA1F48091E80052
:104FC000877F8093E8008091E80080FFFCCF80918C
:104FD00024038093F1008091E8008E778093E800AD
:104FE0000C94EC29089584B7877F84BF0FB6F8949A
:104FF000A8958091600088618093600010926000A5
:105000000FBE90E080E80FB6F89480936100909313
:1050100061000FBE0E9482180E943E2A0E949B2AB5
:105020008091E20084608093E20078940E94302DA9
:105030000E94901881E291E00E94F21780917D0316
:105040008530A9F480917D03853079F40E94902504
:1050500080917B038823B1F30E947725882391F305
:105060000E9497280E944D1DEDCF0E94C6250E94E8
:105070009A180E948C18E2CF0C943E28292F3327CF
:1050800023303105C9F060F42130310581F0223040
:10509000310509F044C08BE390E020E835E043C0DF
:1050A00021323105E1F02232310549F138C082E187
:1050B00090E02BEB35E037C099278130910549F01E
:1050C00028F0029761F5E6E5F5E005C0ECE7F5E0CC
:1050D00002C0E4E6F5E0849190E09F0124C06115F0
:1050E000710541F061307105D1F489E090E02BEA5F
:1050F00035E019C089E090E022E935E014C061157F
:10510000710541F06130710551F486EB90E02DECB2
:1051100035E009C080E490E023E836E004C080E098
:1051200090E020E030E0FA0131832083089580E1AF
:1051300089BD82E189BD09B400FEFDCF8091D80010
:105140008F7D8093D8008091E00082608093E000A2
:105150008091E00081FDFCCF0895CF92DF92EF9225
:10516000FF920F931F93CF93DF93EC018B017A0192
:105170000E940B2A811133C0E114F10439F0F701C8
:1051800080819181081B190BC80FD91FC12CD12C0C
:105190000115110519F18091E80085FD16C0809177
:1051A000E8008E778093E800E114F10449F0F701FC
:1051B00080819181C80ED91ED182C08285E00FC046
:1051C0000E940B2A882321F30AC089918093F10061
:1051D00001501109FFEFCF1ADF0ADACF80E0DF912B
:1051E000CF911F910F91FF90EF90DF90CF90089596
:1051F00020918403309185032617370748F0611505
:10520000710539F42091E8002E772093E80001C061
:10521000B901FC0120E06115710579F180917D03F0
:105220008823F1F18530F1F18091E80083FD3CC0E5
:105230008091E80082FD2EC08091E80080FFEBCFD6
:105240002091F3008091F20090E0922B611571059E
:1052500051F08830910538F421912093F10061508C
:1052600071090196F3CF21E0089709F020E08091C1
:10527000E8008E778093E800CECF2111CFCF0AC00F
:1052800080917D03882361F0853061F08091E80092
:1052900083FD0AC08091E80082FFF2CF80E008958C
:1052A00082E0089583E0089581E0089520918403C9
:1052B000309185032617370748F06115710539F4D9
:1052C0002091E8002E772093E80001C0B901FC018D
:1052D00020E06115710591F180917D03882309F427
:1052E00040C0853009F43FC08091E80083FD3DC097
:1052F0008091E80082FD2FC08091E80080FFE9CF17
:105300002091F3008091F20090E0922B61157105DD
:1053100059F08830910540F424912093F1003196A2
:10532000615071090196F2CF21E0089709F020E061
:105330008091E8008E778093E800CBCF2111CCCF0D
:105340000AC080917D03882361F0853061F08091EF
:10535000E80083FD0AC08091E80082FFF2CF80E080
:10536000089582E0089583E0089581E00895982FDC
:10537000973068F59093E900981739F07091EC0038
:105380002091ED005091F00003C0242F762F50E0C3
:1053900021FD02C09F5FECCF3091EB003E7F309348
:1053A000EB003091ED003D7F3093ED003091EB004C
:1053B00031603093EB007093EC002093ED0050933C
:1053C000F0002091EE0027FDE5CF80E008958F707A
:1053D0008093E90081E0089580917E0387FF11C0EA
:1053E0008091E80082FD05C080917D038111F8CF96
:1053F00011C08091E8008B770BC080917D038823DA
:1054000049F08091E80080FFF8CF8091E8008E7726
:105410008093E80008952091E4003091E50095E63E
:105420004091EC00842F817040FF23C08091E80000
:1054300080FD1DC080917D03882399F0853099F00F
:105440008091EB0085FD11C04091E4005091E50092
:105450002417350729F3915011F09A01E1CF84E028
:10546000089582E0089583E0089581E0089580E042
:1054700008954091E80042FFDDCF08950E94AC2AD4
:105480000E94B42AE0EEF0E0808181608083E8ED44
:10549000F0E080818F77808319BCA7EDB0E08C911C
:1054A0008E7F8C9380818F7E808310927C03089501
:1054B0000F931F93CF93DF930E94AC2A0E94B42ACC
:1054C000C8EDD0E088818F77888388818068888361
:1054D00088818F7D888319BC10927D031092790397
:1054E00010927B0310927A0300EE10E0F8018081A5
:1054F0008B7F808388818160888342E060E080E0E8
:105500000E94B729E1EEF0E080818E7F8083E2EE99
:10551000F0E0808181608083808188608083F801F1
:1055200080818E7F8083888180618883DF91CF91A5
:105530001F910F910895E8EDF0E080818F7E8083C8
:10554000E7EDF0E080818160808384E082BF81E0CC
:1055500080937C030C94582AE8EDF0E080818E7FE4
:1055600080831092E20008951092DA001092E10018
:1055700008951F920F920FB60F9211242F933F930D
:105580004F935F936F937F938F939F93AF93BF934B
:10559000EF93FF938091E10082FF0BC08091E200C6
:1055A00082FF07C08091E1008B7F8093E1000E9421
:1055B0002F2D8091DA0080FF1FC08091D80080FFDE
:1055C0001BC08091DA008E7F8093DA008091D90031
:1055D00080FF0DC080E189BD82E189BD09B400FE74
:1055E000FDCF81E080937D030E94182705C019BC80
:1055F00010927D030E9426278091E10080FF19C050
:105600008091E20080FF15C08091E2008E7F809340
:10561000E2008091E20080618093E2008091D800F6
:1056200080628093D80019BC85E080937D030E943E
:105630002A278091E10084FF30C08091E20084FF3E
:105640002CC080E189BD82E189BD09B400FEFDCF97
:105650008091D8008F7D8093D8008091E1008F7E6B
:105660008093E1008091E2008F7E8093E200809140
:10567000E20081608093E20080917903882311F039
:1056800084E007C08091E30087FD02C081E001C093
:1056900083E080937D030E942B278091E10083FFAC
:1056A00029C08091E20083FF25C08091E100877FBF
:1056B0008093E10082E080937D03109279038091D2
:1056C000E1008E7F8093E1008091E2008E7F8093E5
:1056D000E2008091E20080618093E20042E060E0BD
:1056E00080E00E94B7298091F00088608093F000EC
:1056F0000E942927FF91EF91BF91AF919F918F91C8
:105700007F916F915F914F913F912F910F900FBEBD
:105710000F901F9018951F920F920FB60F921124A1
:105720002F933F934F935F936F937F938F939F93A9
:10573000AF93BF93CF93DF93EF93FF93C091E900B3
:10574000CF708091EC00D82FD17080FDD0E81092FE
:10575000E9008091F000877F8093F00078940E94A8
:10576000CF2B1092E9008091F00088608093F000C8
:10577000CD2BCF70C093E900FF91EF91DF91CF91D6
:10578000BF91AF919F918F917F916F915F914F9159
:105790003F912F910F900FBE0F901F9018951F9360
:1057A000CF93DF93CDB7DEB7AA970FB6F894DEBFDD
:1057B0000FBECDBFEEE7F3E08091F100819323E0CF
:1057C000E638F207C9F70E9436278091E80083FF88
:1057D0002EC180917E0390917F03492F50E04A3083
:1057E000510508F024C1FA01EC58FF4F0C94B12D7B
:1057F000803821F0823809F01AC108C080917A03FC
:1058000090917B03992389F082600FC0809182037D
:105810008F70873008F00BC18093E9008091EB0016
:1058200085FB882780F91092E9009091E800977F26
:105830009093E8008093F1001092F100D1C0282FDE
:105840002D7F09F0F4C0882319F0823061F0EFC099
:1058500080918003813009F0EAC0933009F080E044
:1058600080937B032EC08091800381112AC0809198
:1058700082038F702FEF280F263008F0D8C0809356
:10588000E9002091EB0020FF1CC0933021F48091AF
:10589000EB00806214C09091EB0090619093EB005C
:1058A00021E030E0A90102C0440F551F8A95E2F7BC
:1058B0004093EA001092EA008091EB0088608093A8
:1058C000EB001092E9008091E800877F8093E80068
:1058D0000E94EC29ACC08111AAC0109180031F77EF
:1058E0008091E3008078812B8093E3008091E80031
:1058F000877F8093E8000E94EC298091E80080FF78
:10590000FCCF8091E30080688093E300111102C016
:1059100082E001C083E080937D0389C0805882309B
:1059200008F085C080918003909181038C3D53E005
:10593000950779F583E08A838AE289834FB7F894E3
:10594000DE01139620E03EE051E2E32FF0E05093B9
:105950005700E49120FF03C0E295EF703F5FEF70C6
:105960008E2F90E0EA3010F0C79601C0C0968D935C
:105970009D932F5F243149F74FBF8091E800877FC7
:105980008093E8006AE270E0CE0101960E94F82858
:1059900016C06091820370918303AE014F5F5F4F29
:1059A0000E943C28BC01892B09F441C09091E80079
:1059B000977F9093E80089819A810E94562980916F
:1059C000E8008B778093E80032C0803881F58091C1
:1059D000E800877F8093E800809179038093F1004D
:1059E0008091E8008E7772CF811121C08091800371
:1059F0009091810399270297D4F48091E800877FE2
:105A00008093E80080918003809379030E94EC29C1
:105A100080917903811106C08091E30087FD02C067
:105A200081E001C084E080937D030E942C27809157
:105A3000E80083FF0AC08091E800877F8093E80038
:105A40008091EB0080628093EB00AA960FB6F894E9
:105A5000DEBF0FBECDBFDF91CF911F910895089596
:105A6000CF9380917D038823A1F0C091E900CF708E
:105A70009091EC00892F817090FD80E8C82B1092E6
:105A8000E9008091E80083FD0E94CF2BCF70C09386
:105A9000E900CF910895DB018F939F930E94D52D4C
:105AA000BF91AF91A29F800D911DA39F900DB29FBA
:105AB000900D11240895991B79E004C0991F961741
:105AC00008F0961B881F7A95C9F780950895AA1B40
:105AD000BB1B51E107C0AA1FBB1FA617B70710F0D9
